:020000040002F8
:1000000058E600108D22020095220200972202007D
:10001000992202009B2202009D2202009EF3FFEF24
:100020000000000000000000000000009F2202000D
:10003000A122020000000000A3220200A52202006B
:1000400001460200054302002D4302004343020023
:10005000514302008F59020099590200A35902002E
:10006000AD590200A7220200074F0200FD4E020018
:10007000114F020000000000A7220200A722020088
:10008000A722020035390200A7220200A72202009F
:10009000A7220200A7220200A7220200A722020034
:1000A000A7220200CF2C0200A7220200A7220200F2
:1000B0005D860200A7220200A7220200A7220200FA
:1000C000A7220200A7220200A7220200A722020004
:1000D000A7220200A7220200A7220200A7220200F4
:1000E000A722020000F002F800F070F80AA090E8E1
:1000F000000C82448344AAF10107DA4501D100F0E3
:1001000065F8AFF2090EBAE80F0013F0010F18BF3F
:10011000FB1A43F00103184778ED0500F8ED0500E0
:100120000A444FF0000C10F8013B13F0070408BF1D
:1001300010F8014B1D1108BF10F8015B641E05D0BB
:1001400010F8016B641E01F8016BF9D113F0080F70
:100150001EBF10F8014BAD1C0C1B09D16D1E58BF02
:1001600001F801CBFAD505E014F8016B01F8016B39
:100170006D1EF9D59142D6D370470000103A24BFC6
:1001800078C878C1FAD8520724BF30C830C144BFFC
:1001900004680C607047000000230024002500263E
:1001A000103A28BF78C1FBD8520728BF30C148BFDA
:1001B0000B6070471FB55DF0C2FB9DE8030058F06F
:1001C000D5FA58F0B6F91FBD10B510BD58F03AFB7E
:1001D0001146FFF7EFFF00F04CFC58F058FB03B45A
:1001E000FFF7F2FF03BC58F085FB00000B49D1F884
:1001F00000C04A685CF8043B1068184442F8040BDD
:100200008C4528BFA1F1DC0C8A4228BFA1F1DC0299
:10021000C1F800C04A6020F0004070474CC0001098
:1002200010B506F02FFC5C224FF49A41FE481EF0F8
:1002300077FF1EF0C3FEFC4800882E2805D1002160
:1002400042F6DF6004F09BF804E0002140F6B7308E
:1002500004F095F810BD10B5FFF7E2FFF248C07941
:10026000012801D11FF03BFB00241EF0BDFC044619
:10027000632C00DD632464200FF01DFF611CC8B2F5
:100280000FF02FFF601CE9490880E9480470204600
:1002900021F065FD06F06DFF1FF0F9F803F04BF952
:1002A00003F0E2F923F007F8E24800210160416021
:1002B0000181DD4800882A380F2840D2DFE800F0AD
:1002C000353A300B231E102B1619263F3F0811001C
:1002D0004FF042F834E052F03DF950F0E8FC2FE0E6
:1002E00000BF53F0A6FE50F0E2FC29E055F033FECB
:1002F00026E057F03DFB56F041FE21E053F0E4FAD2
:1003000050F0D5FC1CE052F0A8FE19E057F08BFC31
:1003100056F034FE14E054F0E8F850F0C8FC0FE05A
:1003200051F057FF50F0C3FC0AE051F00FFC50F0C1
:10033000BEFC05E051F0E6FD50F0B9FC00E000BF66
:1003400000BF002142F2107004F097F8B648C0795F
:10035000012803D12DF0C8F82DF0DCF810BD1CB534
:1003600022F0DDFAB04800882A380F282ED2DFE8C4
:1003700000F0272A240B1B180E2112151E2D2D0804
:100380000F004FF0B0F822E050F0FFFC1FE000BF7C
:1003900050F0FBFC1BE055F052FF18E056F074FEE5
:1003A00015E050F0F2FC12E052F0B9FE0FE056F00A
:1003B0006BFE0CE050F0E9FC09E050F0E6FC06E0D2
:1003C00050F0E3FC03E050F0E0FC00E000BF00BFB1
:1003D000994890ED000AB5EEC00AF1EE10FA03D884
:1003E0009FED960A80ED000A00F073FE94480078B5
:1003F0000190944800780090024693499348019BED
:1004000000F011FF92480078019092480078009027
:10041000024691499148019B00F005FF9048007801
:10042000019090480078009002468F498F48019BC8
:1004300000F0F9FE8E48007801908E480078009018
:1004400002468D498D48019B00F0EDFE8C480078F6
:1004500001908C480078009002468B498B48019BA4
:1004600000F0E1FE8A48007801908A480078009008
:10047000024689498948019B00F0D5FE88480078EA
:100480000190884800780090024687498748019B80
:1004900000F0C9FE864800780190864800780090F8
:1004A000024685498548019B00F0BDFE84480078DE
:1004B0000190844800780090024683498348019B5C
:1004C00000F0B1FE824800780190824800780090E8
:1004D000024681498148019B00F0A5FE80480078D2
:1004E000019080480078009002467F497F48019B38
:1004F00000F099FE7E48007801907E4800780090D8
:1005000002467D497D48019B00F08DFE7C480078C5
:1005100001907C480078009002467B497B48019B13
:1005200000F081FE7A48007801907A4800780090C7
:10053000024679497948019B00F075FE3A480088E7
:10054000322807D038480088332803D0364800883E
:1005500034280BD1724800780190724800780090DE
:10056000024671497148019B00F05DFE70480078B9
:10057000019070480078009002466F496F48019BD7
:1005800000F051FE6E48007801906E4800780090AF
:1005900002466D496D48019B00F045FE6C480078AD
:1005A00001906C480078009002466B496B48019BB3
:1005B00000F039FE6A48007801906A48007800909F
:1005C000024669496948019B00F02DFE68480078A1
:1005D0000190684800780090024667496748019B8F
:1005E00000F021FE6648007801906648007800908F
:1005F000024665496548019B00F015FE6448007895
:100600000190644800780090024663496348019B6A
:1006100000F009FE6248007801906248007800907E
:1006200002466149C2E00000F025C4A00C0400A00D
:10063000EE0400A0F84B0010E40500106F12033A1E
:10064000CC040010C8040010A9FF02002FFF020014
:10065000C4080010C008001059690500537F050048
:1006600054090010500900105D770600C58106008E
:100670001009001014090010456B0600E56A060019
:10068000880600108C060010FF020400F901040027
:10069000E4080010E80800103FBA0500C1B90500E1
:1006A0000405001000050010C30203008B040300C2
:1006B0004C05001048050010493A0300038303006D
:1006C0008807001084070010C92C05006538050054
:1006D000800800107C080010A1400500315F050073
:1006E000B8060010BC06001051070400FD06040007
:1006F0004C07001048070010ED160500B323050055
:10070000B4010010B0010010615D0200775D0200CD
:1007100054060010500600108FF40300BDF50300CE
:10072000780500107C05001041E103002BE1030077
:10073000B8090010BC090010F9930600EF930600F9
:10074000780900107C090010CB8F0600998F0600F5
:10075000480A00104C0A0010A3A8060067A806006B
:10076000740A0010700A0010D1A8060005AB06003C
:10077000940A0010900A001045AB060085B70600E9
:10078000C40A0010C00A0010C1B7060043B9060031
:10079000E80A0010EC0A00105FBC060009BA060067
:1007A000180B00101C0B0010E3BF0600BC48019B97
:1007B00000F039FDBB4800780190BB4800780090FC
:1007C0000246BA49BA48019B00F02DFDB9480078AD
:1007D0000190B948007800900246B849B848019B9A
:1007E00000F021FDB74800780190B74800780090EC
:1007F0000246B649B648019B00F015FDB5480078A1
:100800000190B548007800900246B449B448019B75
:1008100000F009FDB348C07901280BD1B248007837
:100820000190B248007800900246B149B148019B5E
:1008300000F0F9FCAB48007801280BD1AE480078F5
:100840000190AE48007800900246AD49AD48019B4A
:1008500000F0E9FCAC4800780190AC480078012237
:100860000090019900F0A6FDA94800780190A948E0
:10087000007801220090019900F09CFDA6490880B3
:10088000A64800780190A6480078012200900199BE
:1008900000F090FDA34800780190A3480078012261
:1008A0000090019900F086FDA04800780190A048D2
:1008B000007801220090019900F07CFD9D4908809C
:1008C0009D48007801909D48007801220090019990
:1008D00000F070FD9A48007801909A480078012253
:1008E0000090019900F066FD9748007801909748C4
:1008F000007801220090019900F05CFD9448007896
:1009000001909448007801220090019900F052FD76
:100910009148007801909148007801220090019957
:1009200000F048FD8E4908808E48007801908E487E
:10093000007801220090019900F03CFD8B4908806D
:100940008B48007801908B48007801220090019933
:1009500000F030FD88490880884800780190884878
:10096000007801220090019900F024FD854800786C
:1009700001908548007801220090019900F01AFD4D
:100980008248007801908248007801220090019905
:1009900000F010FD444800780190424800780122A0
:1009A0000090019900F006FD7A480088322807D0AF
:1009B00078480088332803D076480088342809D145
:1009C00075480078019075480078012200900199DF
:1009D00000F0F0FC72480078019072480078002224
:1009E0000090019900F0E6FC33480078019031480E
:1009F000007801220090019900F0DCFC3648007874
:100A000001903448007801220090019900F0D2FC56
:100A10003448C079012809D134480078019032481F
:100A2000007800220090019900F0C4FC2D48007865
:100A3000012809D13148007801902F48007801221F
:100A40000090019900F0B6FC524800882E2809D188
:100A50001D48007801901B48007800220090019901
:100A600000F0A8FC504851490860514851490860BD
:100A70001CBD00F05CFAB2EE040A4F4880ED060A95
:100A8000FFF7E9FBFFF76BFC00F0F5FA03F0D1FD8F
:100A900003F0B0FD06F0DDF901E000F018FAFCE724
:100AA00037C40600780B00107C0B0010DFDF060057
:100AB000B5DE06002405001020050010E90703003C
:100AC0006B2A0300500C0010540C00103932070040
:100AD0008F330700380B00103C0B00101FDE0600A0
:100AE00013DE0600F84B00109C050010980500105E
:100AF000F5E703009DEA0300C0050010BC050010E7
:100B0000C3ED0300EFEE0300C8040010CC04001096
:100B1000C0080010C4080010A20000105009001006
:100B20005409001014090010100900108C06001060
:100B300088060010A4000010E8080010E408001067
:100B40000005001004050010480500104C050010B9
:100B500084070010880700107C080010800800102F
:100B6000A8000010BC060010B8060010A600001077
:100B7000480700104C070010AA000010B001001038
:100B8000B4010010EC0A0010E80A00101C0B001061
:100B9000180B0010F025C4A07C050010780500108B
:100BA000500600105406001007F40400A8010010BD
:100BB0001B9D0600AC010010D84B001010B50020A2
:100BC00003F03EFC022003F03BFC10BD70B5044670
:100BD0000D46042C10D004DC012C07D0022C14D1BB
:100BE00007E0082C0BD0402C0FD10BE0FE48017819
:100BF0000EE0FE4801780BE0FD48017808E0FD4872
:100C0000017805E0FC48017802E0FB48017800BF6C
:100C100000BFFA48B0F90000814200DB0021012D3D
:100C200020D1481CC2B214E002EB8200F44B03EB6B
:100C30008000007C00B10AE002EB8200F04B03EB85
:100C40008000007BA04201D1104670BD00BF501C47
:100C5000C2B2EA48B0F900008242E5DBE948007818
:100C6000401CF2E7481CC2B216E002EB8200E44EE0
:100C700006EB8000007C10B1501CC2B20CE002EB0D
:100C80008200DF4E06EB8000007BA04201D11046BF
:100C9000DBE7501CC2B200BFD848B0F90000824266
:100CA000E3DB002314E003EB8300D54E06EB80006A
:100CB000007C00B10AE003EB8300D14E06EB80001C
:100CC000007BA04201D11846BFE700BF581CC3B249
:100CD0009342E8DBC948B0F90000401CB5E710B505
:100CE00000210120FFF772FFBF4908600846006835
:100CF000C249B1F90010884208DABB49096801EB22
:100D00008101BF4A02EB81014868804710BD10B5E0
:100D100000210220FFF75AFFB44908600846006826
:100D2000B649B1F90010884208DAB049096801EB08
:100D30008101B34A02EB810148688047B2480068EC
:100D400018B30020B0490860B0480068401CAF49A3
:100D5000086008460068402817D30020086000217A
:100D60004020FFF733FFA449086008460068A34904
:100D7000B1F90010884208DA9F49096801EB810146
:100D80009F4A02EB81014868804710BD10B5A0481A
:100D90000068C8B100209E49086000210820FFF7C4
:100DA00015FF94490860084600689449B1F900109D
:100DB000884222DA8F49096801EB8101904A02EBEF
:100DC00081014868804718E00120914908600021AE
:100DD0004020FFF7FBFE8849086008460068874905
:100DE000B1F90010884208DA8349096801EB8101F2
:100DF000834A02EB81014868804710BD10B58248E4
:100E0000006868B300207A4908607D48007B0428A8
:100E100005D17B48007C10B9794948688047012199
:100E20000420FFF7D3FE724908600EE0704909689C
:100E300001EB8101724A02EB810148688047012180
:100E40000420FFF7C3FE6A490860694800686B49DF
:100E5000B1F900108842E9DB00206B49086010BD41
:100E6000FFF794FF00BFFAE710B504466948008811
:100E7000A04204DD02F023FE00206649088010BD78
:100E800010B500F068FD01205F49086000210846A8
:100E90001DF00BFF10BD10B55E4800885E49098843
:100EA000884213DBFFF7ECFF5C480068401E5B499B
:100EB000086008D108605A49087056490988891E97
:100EC00088B2FFF7D1FF00205249088010BD70B5ED
:100ED0004A48008800B970BD0024002508E005EBF1
:100EE0008500474901EB8000007B0443681CC5B2C4
:100EF0004248B0F900008542F1DB14F0010F02D046
:100F0000FFF7EDFEE7E714F0020F02D0FFF7FFFE58
:100F1000E1E714F0040F02D0FFF770FFDBE714F0F5
:100F2000480F02D0FFF732FFD5E700BFD3E708B57F
:100F30003C48006820F4004000F500403A49C1F800
:100F4000CC010846D0F8CC0120F40040C1F8CC0117
:100F50003648006820F0010000F10100C1F8D0011E
:100F60000846D0F8D00120F00100C1F8D0014FF0C0
:100F7000000000E0401C2E498842FBD302F052FCE6
:100F8000002142F6DF6003F0FAF90221294803F05C
:100F9000F6F9274800E0401E0028FCD102F0FBFDD6
:100FA000002000E0401C22498842FBD302F0E3FC11
:100FB00002F0C1FA6421002004F09CFA64210120AF
:100FC00004F098FA6421022004F094FA1A480068A8
:100FD0001A49C1F820011A48006D194908650846E8
:100FE000006C40F480702DE0600000106400001080
:100FF000680000106C000010700000108A000010E3
:10100000D01100108800001028000010740000109B
:101010007800001036000010380000103C0000106E
:1010200040000010CCC10F4000C00F40D0C10F40A5
:10103000808D5B00BF27090020C1024000C0024034
:101040000080092008644FF0000147F2305003F09F
:1010500014FA012141F2883003F00FFA02F0F1FC9A
:10106000FFF7ACFD002002230322042100900120A1
:1010700004F0EAFC08BD10B55AF0B4FBFE4B0A229E
:10108000002111205AF08CFEFC49087008460078B7
:1010900028B141F22E61F94800785AF0C3FEF84BAE
:1010A0000A22002111205AF07BFEF64908700846FA
:1010B000007828B141F22F61F24800785AF0B2FE70
:1010C000F148F2490968016059F03AFF06F09FFEC5
:1010D00010BD70B5EE48EF4AD2E901161368D26828
:1010E000C0E90262C0E900316421EB4857F0F7FA29
:1010F0001E25642D00DD6425E7490D700846027841
:10110000E649401C57F04AFA642D04D10022681EBB
:10111000E149491C0A54002414E00020E04901EB95
:1011200004110870DE4901EB04114860DC4901EB51
:1011300004110873DA4901EB04114873D9490860B6
:10114000601CC4B2362CE8DB3620D74908704FF05B
:10115000FF30D6490860D6490860D6490860D649AC
:101160000860D64908600020D5490870D549086054
:10117000D5490880D5490860D5490870D549088007
:10118000D54908804FF4A061D44857F0A8FA002050
:10119000D3490880D349C1F88000C1F8840000BF5A
:1011A00030E0D04AD2F88420402A01D1012200E068
:1011B0000022114671B1CB4AD2F88420521EC94B8D
:1011C000C3F884201A4692F88020521C02F03F0295
:1011D000C3F88020C34A92F88020C24B93F8843031
:1011E0001A4402F03F02BF4B23F812001A46D2F80D
:1011F0008420521CC3F884204121BB4A22F81010DD
:10120000411C88B24028CCDB4FF0FF30B749088042
:10121000B7490880B7490880B7490880B7490880AE
:10122000B749088070BD30B5362B19DA9C4C04EBF9
:101230000314647BA4B99A4C04EB03142370984CF8
:1012400004EB03146060964C04EB0314A160944C0F
:1012500004EB031422730124914D05EB03156C7309
:1012600030BD10B59B480088401C9A490880A548AD
:1012700000882E2823D143F69820FFF7F5FDA248D9
:10128000808842F20E71884205DA9F488088801C6F
:101290009D4988800AE09D480078012806D100F029
:1012A0005AFB02F00CFC002098490870884800782E
:1012B00008B1FFF7F0FD0120954908605AE04EF6AD
:1012C0006020FFF7D1FD7F480068401C7D49086021
:1012D0000846007810F0010F4CD18B48808842F20C
:1012E0000F71884205DA88488088401C86498880CA
:1012F0000AE086480078012806D100F02CFB02F0B5
:10130000DEFB0020814908707148007808B1FFF7C2
:10131000C2FD80488088C82808D16A48007810F04B
:10132000030F27D101207A49086023E0794880889B
:10133000B0F5C87F08D16348007810F0070F19D1C5
:1013400001207349086015E072488088B0F5487F35
:1013500008D15C48007810F00F0F0BD101206C49C8
:10136000086007E05748007810F01F0F02D10120F5
:10137000674908606848006820B100210846664A4D
:10138000126890476548007808B12BF049FF10BDFE
:1013900010B5002003F01DF8FFF772FD4B48006800
:1013A00020B102F07AFB0120494908700020494928
:1013B000088010BD2DE9F04104460E461746362C34
:1013C00003DB4FF0FF30BDE8F081354800EB04103F
:1013D000407B10B94FF0FF30F5E74148B0F900000D
:1013E000402802DB4FF0FF30EDE73D48B0F9000048
:1013F00000EB8000394901EB8000294901EB041C16
:101400009CE80E10A0E80E103548B0F9000000EB83
:101410008000324901EB8000067300203049B1F9A9
:10142000001001EB81012D4A02EB810108742D4867
:10143000D0F8840008B1012000E000208046B8F117
:10144000000F13D02748D0F88000264931F81050FB
:101450000846D0F88400401EC1F88400084690F881
:101460008000401C00F03F00C1F88000B8F1000F80
:1014700076D028B21A4953E06B7A02008804001033
:10148000B77B020091040010607F0020B8040010B8
:10149000D817001000000010E81700100A00001014
:1014A000700E00107800001088000010600000101E
:1014B00064000010680000106C0000107000001044
:1014C0008C00001084000010420000103C0000104E
:1014D000400000103600001038000010D01100103D
:1014E0008A000010D016001058170010AC00001031
:1014F000AE000010B0000010B2000010B4000010E8
:10150000B6000010F025C4A02C000010330000101D
:1015100028000010F84B0010F005001034000010F7
:10152000B1F9001001EB8101F44A02EB810148821C
:1015300047B1F349B1F9001001EB810102EB8101E0
:1015400088688047EE480088EE4921F81500EC488D
:101550000088401C00B2EA49088028B233E7FFE760
:101560004FF0FF302FE770B50446002557E005EB3C
:101570008500E24901EB8000B0F91200A0424CD195
:101580002E460EE0721C02EB8202DC4B03EB820162
:1015900006EB860203EB8200142257F044F8701C1D
:1015A00086B2D748B0F90000401EB042EADC4120C4
:1015B000D44921F81400D2480088401E00B2D04916
:1015C0000880D149D1F88410402901D1012100E0DF
:1015D0000021084670B1CC49D1F88410491ECA4A8E
:1015E000C2F88410114691F88010491C01F03F01A7
:1015F000C2F88010C44991F88010C34A92F8842040
:10160000114401F03F01C04A22F811401146D1F8BF
:101610008410491CC2F8841070BD681C85B2B8489B
:10162000B0F900008542A2DB00BFF5E710B5014626
:10163000002012E000EB8002B04B03EB8202B2F913
:1016400012208A4207D1012200EB8003AB4C04EB4D
:1016500083031A7410BD421C90B2A94AB2F900204B
:101660009042E7DB00BFF5E770B505460E46002463
:101670001AE004EB8400A14901EB8000B0F91200EC
:10168000A8420FD136B104EB84019C4A02EB8101E0
:1016900088688047002004EB8401984A02EB8101AE
:1016A000087470BD601C84B29548B0F90000844293
:1016B000DFDB00BFF5E7402800DB7047914A32F8D6
:1016C0001020402A00DBF8E78E4A32F8102002EBA7
:1016D00082028A4B03EB8202117300BFEDE703B570
:1016E00083B002F0DAF9DDE9030100F0E6F9012048
:1016F0008649087000208649087001A800F039F971
:10170000844801990160BDF8081081800020824959
:10171000087005B000BD2DE9F3432DED028B85B0B7
:1017200000BF00BF00BF9FED7D0BB0EE408AF0EE22
:10173000608A7748007800287ED0012802D00228ED
:101740007BD116E0DDE9070100F04EFA754A724BD5
:101750001B7802EBC30203C26F480078401C6E493D
:101760000870084600780C2802DB022068490870DF
:10177000BDE000206649087001A800F0FAF865484D
:1017800001990160BDF8081081806C2677076FF021
:101790006B086FF0004900242546002023E06149D2
:1017A00001EBC001D1E90021B21A77EB010103DAA4
:1017B0005C4901EBC001C0C95A4901EBC001D1E944
:1017C0000021B2EB080271EB090104DA554901EB83
:1017D000C001D1E90089534901EBC001D1E90021E1
:1017E00014194D41401C0C28D9DBA41B65EB0705DF
:1017F000B4EB080465EB09050A22002320462946BC
:1018000056F056FE04460D46C8210020091BA8418B
:1018100002DAC824002508E06FF0C701611A75F1EB
:10182000FF3002DA6FF0C7042512002184EA0100BC
:101830006940084322D001E031E031E00021084650
:10184000091BA8410DDA384800882E2804D141F23E
:101850008D303649088011E044F634603349088001
:101860000CE0314800882E2804D141F283302F4902
:10187000088003E044F60C602C49088020B22C4913
:10188000088000202B49087000BF2046294656F0EA
:1018900033FE2949086001202849087027E000BF6D
:1018A0001C48016801918088ADF80800029A03A8DD
:1018B00000F078F840F6CA510398884205D3012019
:1018C0001349087000201449087040F68E5103989F
:1018D00088420BD319480078012807D10020174906
:1018E00008701348B0F900000DF03CFD00BF00BFC8
:1018F00005B0BDEC028BBDE8FC830000D0110010E8
:101900008A00001058170010D01600103300001085
:101910009A0000109B000010A100001000000000C1
:101920000000000050180010F025C4A0380000107E
:1019300042000010400000103C000010D0040010D5
:1019400001460846A0F50000704701460902091249
:1019500001F5000070470020DC49888008460068D7
:10196000401C0860DA48007880F00100D84908700F
:1019700070470CB5D64A1178D44A13680093928800
:10198000ADF80420D24A1278914205D0CF4A1368AC
:1019900000939288ADF80420009A0260BDF80420FC
:1019A00082800CBD37B584B0054602A8FFF7E1FF81
:1019B000BDF80C00BDF81810441A002000900190EA
:1019C00005990298401A0090002C05DA42F2107036
:1019D00004440098401E0090A0B2ADF804000098A6
:1019E0002860BDF80400A88007B030BD1CB50446CF
:1019F0006846FFF7BEFF0098A04201D200201CBD40
:101A00000098001BFBE71CB504466846FFF7B1FFD2
:101A100000982060BDF80400A0801CBD2DE9FF43A4
:101A2000044625466846FFF7A4FF286800998842C7
:101A300009D900982060BDF80400A080002001466C
:101A400004B0BDE8F0832868009988420CD1A888CA
:101A5000BDF80410884207DB00982060BDF8040040
:101A6000A08000200146EBE7BDF80400A988461AD3
:101A700000982968401A0290002E05DA42F2107090
:101A800006440298401E0290B0B2ADF80C004FF030
:101A90000008029F42F2107200203946A1FB02C9E1
:101AA00008FB029207FB00286746BDF80C00C71927
:101AB00048F1000838464146C2E703B58449087832
:101AC0008249009A0A60BDF804208A80804909781A
:101AD000884205D07D49009A0A60BDF804208A80BA
:101AE0000CBD30B503460A461846114684888D88D9
:101AF0002C4442F20F75AC420CDD04680D682C4496
:101B0000641C046084888D882C44A4F51C54103C0B
:101B1000848007E004680D682C44046084888D8804
:101B20002C44848030BD1FB52DED048B82B0089904
:101B30000698884205D99FED670B02B0BDEC048B77
:101B40001FBD08990698884208D1BDF81C00BDF851
:101B50002410884202DB9FED5F0BEEE7BDF8240006
:101B6000BDF81C10441A06990898401A0090002CE1
:101B700005DA42F2107004440098401E0090A0B2B2
:101B8000ADF80400BDF804005BF078FB41EC100BED
:101B9000B0EE408AF0EE608A9FED500B53EC102BB4
:101BA00051EC180B5BF062F941EC100BB0EE408A7F
:101BB000F0EE608A00985BF061FB41EC100BB0EE38
:101BC000409AF0EE609A53EC182B51EC190B5BF035
:101BD00099F841EC100BB0EE408AF0EE608AB0EE5E
:101BE000480AF0EE680AA8E7F3B582B06846FFF746
:101BF000C0FEBDF80440BDF80C00241A0A2094FB76
:101C0000F0F40026009D02982D1A66F100064FF4AC
:101C10007A7200272946A1FB020C06FB02C205FBD3
:101C2000072605462D1946EBE4762846314604B0D2
:101C3000F0BD70B502460B46002100241D46002D64
:101C400001DC002070BD12E012F8010B41400824B5
:101C50000BE011F0800F04D0072080EA4100C1B2F0
:101C600001E04806010E601EC4B2002CF1DC280021
:101C7000A5F10106B5B2E7D10846E3E77FB5064610
:101C80000C4602A8FFF775FEBDF80C00A188451AA6
:101C900000200090019002982168401A0090002DC9
:101CA00005DA42F2107005440098401E0090A8B278
:101CB000ADF8040002982060BDF80C00A0800098E8
:101CC0003060BDF80400B0807FBD00002C00001023
:101CD00032000010000000000000000000000000C2
:101CE0000088C34030B50346FA480068C82801DBC5
:101CF000002030BDF7480088401CF64C246804EBF7
:101D00004404F54D25F83400F248006800EB40002B
:101D10002C4604EBC0004360EE48006800EB400036
:101D200004EBC0008160EB48006800EB400004EB6E
:101D3000C000C2600020E74C246804EB440405EBBB
:101D4000C4042061E34C246804EB440405EBC404A0
:101D50006061E0480068401CDE4C2060204600883E
:101D600080B2C6E710B50246012A04DBD9480068F4
:101D7000401C824201DD002010BD501E00EB4000DF
:101D8000D54B03EBC000C1600023501E00EB4000A8
:101D9000D14C04EBC0000361501E00EB400004EB8B
:101DA000C00043610120E7E7012804DBC949096855
:101DB000491C884200DD70470022411E01EB4101B1
:101DC000C54B03EBC1010A61411E01EB410103EB6D
:101DD000C1014A6100BFEEE70146012904DBBD48AD
:101DE0000068401C814201DD00207047481E00EB66
:101DF0004000B94A02EBC0004269481E00EB4000B7
:101E0000B54B03EBC000C068824201D30120ECE770
:101E10000020EAE70146012904DBAE480068401CC7
:101E2000814201DD00207047481E00EB4000AA4AB5
:101E300002EBC000406908B90120F4E70020F2E796
:101E40000146012904DBA3480068401C814202DDF1
:101E50004FF0FF307047481E00EB40009E4A02EBF7
:101E6000C0004069F6E72DE9F04105468846012D9E
:101E700004DB98480068401C854203DD4FF0FF30CA
:101E8000BDE8F081681E00EB4000934901EBC004FF
:101E90002846FFF7A1FF074677B16069401E6061E1
:101EA0002069401C206103E0D4E90310401A20613E
:101EB000D4E903108842F7D2D4E904014618E06857
:101EC000B04201D8E068361AD4E9011306FB0310CA
:101ED0001A46414656F062FB6069401C6061012071
:101EE000CEE72DE9F04105460F46012D04DB794888
:101EF0000068401C854203DD4FF0FF30BDE8F081F3
:101F0000681E00EB4000744901EBC0042846FFF74F
:101F100081FF064616B14FF0FF30EFE7D4E9010C20
:101F2000236903FB0C016246384656F037FB6069B3
:101F3000401E60612069401C206103E0D4E9031069
:101F4000401A2061D4E903108842F7D20120D5E776
:101F50002DE9FF47DDE90C54019800680719DDF809
:101F600000800198006880440398B84205D9224651
:101F70004146284656F012FB10E001990398096883
:101F8000461A32464146284656F008FBA946B14457
:101F9000A21B4846009956F001FB00BF029800685A
:101FA000001B029908600398B7FBF0F100FB117069
:101FB00001990860BDE8FF872DE9FF47DDE90C5472
:101FC000019800680299096808440399B0FBF1F28E
:101FD00001FB1206DDF80080B044301903998842F5
:101FE00005D222462946404656F0D8FA0EE003981C
:101FF000871B3A462946404656F0D0FAA946B944CE
:10200000E21B4946009856F0C9FA00BF02980068E2
:10201000204402990860BDE8FF872DE9F04F8BB09E
:1020200005460E4691469B46012D04DB2948006873
:10203000401C854202DD0BB0BDE8F08F681E00EB4E
:102040004000254901EBC000C068B04200D1F2E772
:10205000681E00EB4000204901EBC0004069B0421F
:102060000DD2681E00EB400001EBC000006930B9E2
:10207000681E00EB400001EBC000C660DBE7BBF16F
:10208000010F05D11548C07D401CB04206D2D2E7F1
:102090001248807D401CB04200D2CCE70027681E69
:1020A00000EB40000C4901EBC004202103A856F0CE
:1020B00016FB681E00EB4000074901EBC0004069B9
:1020C000B04250D9CA460020CAF8000037468046C0
:1020D00025E00000D8000010140600A098FAC3A064
:1020E000D4E904010844801B00EB0801681E00EBE2
:1020F0004000544A02EBC0004269B1FBF2F002FB1F
:102100001010D4E9012100FB0120029003ABA2686A
:1021100008FB0230029956F041FA08F10108B8456F
:10212000DEDB4FF0000817E0D4E9013C08FB0C307F
:10213000624603AB03EB880156F030FADAF8000090
:10214000029003A850F828000190DDE9011008442E
:10215000CAF8000008F10108B845E5DB002020615D
:10216000E660666167E7681E00EB4000354901EBF9
:10217000C0004069B0423AD2681E00EB400001EB5B
:10218000C00047694FF000081BE0206900EB080120
:10219000681E00EB40002B4A02EBC0004069B1FB17
:1021A000F0F200FB121AD4E9013C0AFB0C31624642
:1021B00063460DF10C0C08FB03C056F0EFF908F173
:1021C0000108B845E1DB4FF000080BE0D4E9013C21
:1021D00008FB0C30624603AB03EB880156F0DEF9D6
:1021E00008F10108B845F1DB00202061E66000BF7E
:1021F00021E72DE9F04105460F46012D04DB124889
:102200000068401C854203DD4FF0FF30BDE8F081DF
:10221000681E00EB40000B4901EBC0042846FFF7A5
:10222000F9FD064616B14FF0FF30EFE7D4E9010C97
:10223000236903FB0C016246384656F0AFF90120D2
:10224000E4E70000140600A0D800001070B50B46AB
:10225000D90803F007042AB1455C0126A64035439E
:10226000455404E0455C0126A640B543455470BD85
:1022700010B50246CB0801F00704D05C204110F0F5
:10228000010F01D0012010BD0020FCE70948804764
:1022900009480047FEE7FEE7FEE7FEE7FEE7FEE748
:1022A000FEE7FEE7FEE7FEE704480549054A064B60
:1022B00070470000A5250200E5000200B8C000102C
:1022C00058E60010B8C4001058C6001030B5EB48EE
:1022D000006810F4807F6BD1E948006810F0010FAE
:1022E0002CD1E648006810F01F0F01D1002006E055
:1022F000E248006800F01F00E249B1FBF0F0E2495B
:102300000860E248006810F01F0F01D1002006E0CD
:10231000DE48006800F01F00DA49B1FBF0F0DC494C
:102320000860DC48006800F0010000F10100D649B7
:102330000968B1FBF0F0D8490860B6E0D7480068FA
:1023400010F0400F07D10020CF490860D049086045
:10235000D1490860A9E0C948006810F01F0F01D1F9
:10236000002006E0C548006800F01F00C549B1FB29
:10237000F0F0C5490860C548006810F01F0F01D192
:10238000002006E0C148006800F01F00BD49B1FB15
:10239000F0F0BF490860BF48006800F0010000F19C
:1023A0000100B9490968B1FBF0F0BB4908607CE065
:1023B000BB48006810F4807F07D10020B249086054
:1023C000B3490860B44908606FE0AD48006810F098
:1023D000010F2ED1B24C246804F01F0404F1010057
:1023E000B04CD4F8044104F01F01A84C246804F058
:1023F0001F02AC4CD4F8004104F0010404F10103C5
:1024000009B9002403E09F4C4443B4FBF1F49E4D12
:102410002C600AB9002403E09A4C4443B4FBF2F464
:102420009B4D2C60984C2468B4FBF3F49A4D2C60BF
:102430003BE09A48006810F0400F07D10020924915
:10244000086093490860944908602EE0944C246821
:1024500004F01F0404F10100924CD4F8044104F08C
:102460001F018A4C246804F01F028E4CD4F80041EE
:1024700004F0010404F1010309B9002403E0814CD4
:102480004443B4FBF1F4804D2C600AB9002403E00E
:102490007C4C4443B4FBF2F47D4D2C607A4C2468B0
:1024A000B4FBF3F47C4D2C6000BF7F48006810F44F
:1024B000807F31D07C48006810F01F0004D00428D1
:1024C00006D0062823D104E000207849086022E0E5
:1024D00000BF734A126802F01F0202F10100714A44
:1024E000D2F8082102F01F01654A126812F0010FAC
:1024F00006D0644A4243B2FBF1F26C4B1A6005E02D
:10250000604A4243B2FBF1F2684B1A6003E00020DC
:102510006649086000BF24E06348006810F4007F4B
:102520001CD05748006810F0010F0BD060480068BD
:1025300000F01F0000F10100524900FB01F05B496F
:1025400008600EE05648006800F01F0000F101002E
:102550004C4900FB01F05549086002E00020534956
:10256000086030BD3EB55348534B191D00221C680E
:1025700001940C680094514D019CAC4206D1009C22
:10258000A4F18855113D01D1012400E00024224628
:102590003AB104680294029C44F470040294029CD0
:1025A00004603EBD00B5FFF7DDFF21203B49086018
:1025B00000BF3A48006810F0400FFAD001203049BF
:1025C00008604FF009003749C1F884004FF001005E
:1025D0003B4908604FF0AA003A4908604FF05500A7
:1025E000086000BF2E48006810F4806FFAD02320E6
:1025F000354908604FF001002A49C1F8A0004FF0AA
:10260000AA00324908604FF055002649C1F8AC00D5
:1026100000BF2748006810F4806FFAD040F2011024
:102620001649086040F201201E49C1F808014FF028
:1026300001001849086040F20220254908604FF067
:102640000200124908602348234908604FF4807053
:102650001449C1F8C8010846D0F8B00140F00300A1
:102660001E49086045F23A000E4908604FF40030F8
:102670001B490860FFF72AFE00BD000004C10F409F
:102680000CC10F40001BB700F8000010A8C10F409C
:10269000FC00001000C10F4000010010A0C10F405D
:1026A00088C00F4000C00F4008C10F400401001057
:1026B000A8C00F4088ED00E040EF00E021001110BD
:1026C00080C00F408CC00F40A4C00F40ACC00F4072
:1026D000B4C10F40DE872804C4C00F40B0C10F4012
:1026E00008ED00E010B5002231B1012906D0022921
:1026F00006D0032909D105E0F74A08E0F74A06E0C9
:10270000F74A04E0F64A121F01E0F54A00BF00BF95
:1027100070B90023F34C2361A36001232360234697
:102720005A6100232360CF232361EF4B19700FE020
:1027300001280DD10023ED4C2361A3600123236008
:1027400023465A6100232360CF232361E84B19708D
:1027500010BD10B502461AB1012A01D0022010BDE9
:102760000AB9E04800E0E14801468B6813F0010F28
:1027700023D0486ADF4C2060086A6060886AA060E5
:10278000CC6ADC48C4604068C00FDB4C6071D9483B
:102790004068C0F303402071D6488068A060D548E7
:1027A000C468D548C460D3480068D34C2060012079
:1027B000E071042048600120D1E753F0400002D1CD
:1027C00053F0800003D0042048600220C7E70420B3
:1027D00048600220C3E7F0B5A9B0044624B1012C3B
:1027E00002D0032029B0F0BD00252046FFF7B1FF3D
:1027F0000546012D7ED1C0480068CDF84F00BE4986
:10280000D1E90201CDE9160148F2E9006043BB4974
:1028100001EBC000BA49405840F6B731884203D9AD
:102820000120B8490880DDE74422B3490C316846ED
:1028300055F0F9FEB0480EC8204615F092FF08B1D9
:102840000220CFE700208DF84A0048F2E9006043FB
:10285000AA4901EBC000AA494058A0F53061B83937
:1028600001D1012000E00020064646B348F2E9000D
:102870006043A24901EBC000A1494058401E48F204
:10288000E90161439D4A02EBC1019D4A885048F22B
:10289000E9006043994901EBC000111F4058401CFA
:1028A00040F6B831B0FBF1F201FB120148F2E90049
:1028B0006043924A02EBC000914A121F815048F2D5
:1028C000E90060438D4901EBC0008D49091F415863
:1028D00048F2E9006043894A02EBC000884A805808
:1028E000084440F6B831B0FBF1F201FB120000EBF6
:1028F000400100E04AE001EBC00148F2E90060431A
:102900007E4A02EBC00000EBC107582212A93846EC
:1029100055F089FE48F2E9006043784901EBC000B8
:1029200077494058401C48F2E9016143734A02EB81
:10293000C101734A885074480068401C724908609D
:1029400002207049088048F2E90060436B4901EBBE
:10295000C0001146405840F2DC51884203D904209F
:10296000684908800FE048F2E9006043634901EBE1
:10297000C0006349405840F6B731884203D901206E
:10298000604908802EE75F4800782BE7032029E79D
:10299000F0B503460C461BB1012B01D0A220F0BDBF
:1029A00000250BB94F4800E05048014657480078D1
:1029B00008B9A220F3E70020DFF850C18CF800002E
:1029C0005348D2F806C0C0F808C0D2F80AC0C0F810
:1029D0000CC016795779300440EAC770DFF830C16F
:1029E000CCF800005079012805D1106820F0604033
:1029F000CCF8040006E01088C0F30A00DFF810C12C
:102A0000CCF80400012C14D141480068DFF804C15F
:102A100000EA0C0008633E48406848633C48806810
:102A200088633B48C068C863486840F0210048603C
:102A30002DE0022C14D136480068DFF8D8C000EA37
:102A40000C000864324840684864314880688864F3
:102A50002F48C068C864486840F04100486016E0EC
:102A6000042C12D12A480068DFF8A8C000EA0C0044
:102A70000865274840684865254880688865244877
:102A8000C068C8658120486001E0A22087E7CD6961
:102A90002148054205D0486840F008004860A2205F
:102AA0007DE7A0207BE770B5014619B1012901D06F
:102AB000A32070BD0022002309B90A4800E00B489A
:102AC0000546EA6912F00C0F3BD00020134E30800F
:102AD00001200E4E30702DE03B0085000E008D0071
:102AE00007008C0000400440000400A00080044067
:102AF000010400A060FF19A070FE19A080F70BA0D0
:102B000044070400400100103C0100104401001083
:102B1000C0FE19A000000FC0020202004601001012
:102B20005B1C12F00C0F01D0012407E0FF2B01D930
:102B3000A320BEE7FE4800780028F1D100BF204660
:102B4000B7E7FC480088401CFA4E308030460088C9
:102B5000B0F5FA7F01DAA120ABE70020F54E308016
:102B6000A320A6E72DE9F0419AB004462CB1012C30
:102B700003D000201AB0BDE8F081002648F2E90039
:102B80006043ED4901EBC000EC49405800287DD07E
:102B90002046FFF788FF0546A12D02D0A32D0DD1B9
:102BA00003E0A120E64908708DE0E6480068401C7B
:102BB000E4490860A320E249087084E048F2E90093
:102BC0006043DD4901EBC000DC49405808B10120F9
:102BD00000E000200646EEB348F2E9006043D64A22
:102BE00002EBC00248F2E9006043D34B03EBC000A4
:102BF000D24B1B1FC05800EB400303EBC00002EB9D
:102C0000C001582204A855F00EFD48F2E9006043C7
:102C1000C94901EBC000C9494058401E48F2E901CA
:102C20006143C54A02EBC101C44A885048F2E90039
:102C30006043C14901EBC000111F4058401C40F6E1
:102C4000B831B0FBF1F201FB120148F2E900604338
:102C5000B94A00E004E002EBC000B84A121F8150FC
:102C600046B3DDF8170000900898CDF806000998E3
:102C7000CDF80A009DF810008DF805009DF81100B0
:102C80008DF804006A462946204600E01CE0FFF764
:102C90007FFE8046B8F1A00F03D1A020A84908709C
:102CA00007E0A220A6490870A6480068401CA54974
:102CB000086007E0A420A2490870A2480068401CF0
:102CC000A049086000BF00E00027384652E770B511
:102CD0009D48007818B99D48007800B970BD9A48A1
:102CE0000078002847D09A48C0689A4908600024B4
:102CF0003FE09848006800B93DE00120A0409549B8
:102D0000096800EA0105202D1BD008DC012D13D035
:102D1000022D0CD0042D13D0082D26D119E0402D02
:102D200016D0802D0ED0B5F5007F1ED100E000BF7B
:102D30000020FFF717FF19E00020FFF74CFD15E01A
:102D400000BF00BF844801780020FFF7CBFC0DE0F6
:102D50000CE07F48406840F008007D4948607F48AB
:102D60000068401C7D49086000E000BF00BF601C97
:102D7000C4B20A2CBDDB75480078A0B37848C0689F
:102D80007849086000243BE07648006800B939E0E3
:102D90000120A0407349096800EA0105202D1BD0DD
:102DA00008DC012D13D0022D0CD0042D13D0082DDA
:102DB00022D11AE0402D17D0802D0ED0B5F5007F1E
:102DC0001AD100E000BF0120FFF7CCFE15E0012082
:102DD000FFF701FD11E000BF00BF6348017801204B
:102DE000FFF780FC09E00DE007E05D48406840F037
:102DF00008005B49486000E000BF00BF601CC4B22F
:102E00000A2CC1DB00BF69E710B5002231B10129EE
:102E100006D0022906D0032909D105E0534A08E06B
:102E2000534A06E0534A04E0524A121F01E0514A55
:102E300000BF00BF60B90123454C2360002323611C
:102E4000A36023465A6100232360434B19700DE0B1
:102E500001280BD10123424C236000232361A3608E
:102E600023465A61002323603F4B197010BD014671
:102E700009B9374A00E03A4A1046012202600022AE
:102E8000026342638263C263026442648264C26416
:102E90004260026542658265C26502624262826288
:102EA000C2620260704730B504460D4614B1012C71
:102EB00000D030BD14B1012C67D11DE02E48006850
:102EC00040F400502D49C1F8C4002D48006840F07E
:102ED00001002B4908600846406840F00100486046
:102EE0004FF00000FFF7C3FF29460020FFF78CFFDB
:102EF00001201549087049E01F48006840F48040EF
:102F00001E49C1F8C4001E48006940F002001C4977
:102F100008610846406940F0020048614FF0010036
:102F2000FFF7A5FF29460120FFF76EFF012029E0EA
:102F30004401001046010010F0E803A0440704001B
:102F4000380100100C0100100801001009010010E8
:102F50000040044030010010000400A0040400A060
:102F60000080044034010010010400A03B008500F3
:102F70000E008D0007008C00C4C00F4000C00F4041
:102F800000C00240FE49087000E000BF00BF00BF63
:102F90008FE72DE9F0479AB0044688462CB1012C02
:102FA00003D003201AB0BDE8F087002619200121C4
:102FB0008140F44A430942F8231000BF48F2E90077
:102FC0006043F14901EBC000F0494058A0F5306181
:102FD000B83901D1012000E000208146B9F1000F8D
:102FE00028D048F2E9006043E74901EBC000E74917
:102FF0004058401E48F2E9016143E34A02EBC10137
:10300000E24A885048F2E9006043DF4901EBC00022
:10301000111F4058401C40F6B831B0FBF1F201FBE3
:10302000120148F2E9006043D74A02EBC000D74AD8
:10303000121F815048F2E9006043D34901EBC00000
:10304000D249091F415848F2E9006043CE4A02EBD9
:10305000C000CE4A8058084440F6B831B0FBF1F2C7
:1030600001FB120000EB400101EBC00148F2E90056
:103070006043C54A02EBC00000EBC10A582241463A
:10308000504655F0D0FA48F2E9006043BE4901EBE2
:10309000C000BE494058401C48F2E9016143BA4AA9
:1030A00002EBC101B94A885048F2E9006043B649D1
:1030B00001EBC0001146405800287DD02046FFF7A4
:1030C000F2FC05462846A12D02D0A3280DD103E02D
:1030D000A120AF4908708DE0AE480068401CAD49A2
:1030E0000860A320AA49087084E048F2E900604320
:1030F000A54901EBC000A549405808B1012000E0F6
:1031000000200646EEB348F2E90060439E4A02EB17
:10311000C00248F2E90060439B4B03EBC0009B4BAD
:103120001B1FC05800EB400303EBC00002EBC001C3
:10313000582204A855F077FA48F2E9006043924912
:1031400001EBC00091494058401E48F2E90161433B
:103150008D4A02EBC1018D4A885048F2E900604374
:10316000894901EBC000111F4058401C40F6B8319E
:10317000B0FBF1F201FB120148F2E9006043824A20
:1031800000E004E002EBC000804A121F815046B309
:103190000898CDF806000998CDF80A00DDF8170068
:1031A00000909DF810008DF805009DF811008DF835
:1031B00004006A46294600E01EE02046FFF7E8FBCF
:1031C0008146B9F1A00F03D1A0207149087007E032
:1031D000A2206F4908706F480068401C6D49086064
:1031E00007E0A4206A4908706A480068401C6949E1
:1031F000086000BF00BF00E00027192001218140C6
:1032000042094FF0E02303EB8202C2F8001100BF35
:103210003846C7E67CB5002500208DF802008DF801
:10322000030003208DF8000018208DF80100002411
:1032300012E0DDE9000103F0BFFEDDE9000103F06B
:1032400061FFA0402843C5B29DF80100401CC0B2F8
:103250008DF80100601CC4B2082CEADB28467CBD56
:1032600010B5002013E0002248F2E9014143464B2B
:1032700003EBC101454B1B1FCA5048F2E901414312
:10328000414B03EBC101414BCA50411CC8B202285B
:10329000E9DB002040490880404908803D4908603A
:1032A0003F4908603F49086048213E48083055F0D2
:1032B00016FA002013E0002248F2E90141433A4B9C
:1032C00003EBC101314B1B1FCA5048F2E9014143D6
:1032D000354B03EBC1012D4BCA50411CC8B203282A
:1032E000E9DB00240BE040F6636161432F4A02EB07
:1032F000410041F6C64155F0D0F9601CC4B2102C13
:10330000F1DB10BDFCB50B46144610B1012800D00E
:10331000FCBD274D2A6823F06045009524F06045E8
:1033200001954107009D0D43224E46F82250019D14
:103330000D43561C1F4F47F826501D4D2D68AD1CE0
:103340001B4E356000BFE3E73CB510B1012800D04B
:103350003CBD174C23684407C1F30A0544EA054401
:103360000094C2F30A0444EA40340194DDE90045C4
:103370002C43104D45F823400D4C2468641C1BE081
:103380000901001080E100E0F0E803A04407040018
:10339000380100100C01001042010010460100101D
:1033A0003C01001060FF19A080F70BA0580D18A079
:1033B0001001001000800340B84D2C6000BFC7E72B
:1033C00010B5FFF727FF401CC4B2002040EA0450AC
:1033D000B3490860B34840EA045048604FF0805059
:1033E00040EA04508860B04840EA0451AC48C160EB
:1033F0004FF07F60AA4908616FF07041A8484161B1
:10340000AA48A74988616FF06041A548C16110BD15
:1034100010B5FFF7D5FF0020A049086008460068F6
:10342000A3494860084640688860A248007828B1EF
:1034300040F2FF7200210846FFF786FF9E480078A1
:1034400028B140F2FF7200210120FFF77DFF98486C
:10345000806892490968084480009549C860084618
:10346000C06808619348007830B16FF06042002175
:103470000846FFF747FF17E08948426801680020C7
:10348000FFF740FF8648426901690020FFF73AFFD5
:103490008348C26881680020FFF734FF8048C26912
:1034A00081690020FFF72EFF8348007830B16FF06C
:1034B000604200210120FFF725FF0BE078484268B9
:1034C00001680120FFF71EFF7548C268816801206E
:1034D000FFF718FF764840697049096800EB8100E2
:1034E0007349486110BD10B50446C4B1012C04D025
:1034F000022C11D0042C1BD112E06D480460012075
:103500006E49086000200861886001206C490860ED
:103510000020086188600CE06548046009E000BF95
:10352000012063490860FFF773FF6148046000E011
:1035300000BF00BF10BD10B502210020FFF7B3FC93
:1035400002210120FFF7AFFC0220FFF7CCFF0B2187
:10355000192000F091F9CF205849086158490861B5
:1035600000214FF47A7000F088FFFFF779FE10BD5C
:1035700030B599B053480068CDF80F004822514942
:10358000083106A855F04FF84F48006840F6B731AB
:10359000884202D9012019B030BD4A480068019024
:1035A0009DF8050000F00F00022804D1454914F0F1
:1035B0004DFF0220EFE700208DF80A004248006826
:1035C000A0F53061B83901D1012000E000200446A7
:1035D00084B13D480068401E3B490860081F0068F0
:1035E000401C40F6B831B0FBF1F201FB1200364945
:1035F000091F08603448001F0068334909680844FF
:1036000040F6B831B0FBF1F201FB120000EB4001D3
:1036100001EBC0002D4901EBC005582202A9284644
:1036200055F001F828480068401C27490860084602
:10363000006840F2DC51884201D90420ABE72248FF
:10364000006840F6B731884201D90120A3E700BFE6
:103650000220A0E71E48007810B91E48007808B183
:10366000012070470020FCE71B4890F80101114938
:103670000978884206D1184890F802010E49097865
:10368000884209D0144890F801010A49087012488C
:1036900090F80201084908707047000010010010FE
:1036A000B0FF19A0FFFF0700FFFF07100000F01F89
:1036B00000C003400A0100100B010010004004404C
:1036C0000080044010FF19A0540D18A0100614A08B
:1036D000080100100901001098FAC3A010B5464B6C
:1036E000202404FB003201238B40936110BD10B5F0
:1036F000414B202404FB003201238B40D36110BDD9
:1037000030B5024600233C48202505FB02046369CE
:10371000CB4003F0010030BDF0B514461D4606282D
:1037200007DC202905DCB12C03DC052802DB042999
:1037300000DDF0BD34B1012C05D0022C04D00A2CE0
:1037400035D133E000BF00BF2C4E06EBC01656F853
:10375000216026F00706294F07EBC01747F82160C4
:10376000264E06EBC01656F8216026F48066234FDD
:1037700007EBC01747F821601F4E202707FB0062A8
:10378000012C0DD1166801278F403E4316601DB1F4
:1037900001268E40966108E001268E40D66104E045
:1037A000166801278F40BE43166022E021E0002307
:1037B00000BF1AE0C0EBC006114F07EB4616C1EB85
:1037C000C1073E44F65CA6420DD15E1C0B4F07EBD1
:1037D000C01757F8217066F30207084E06EBC016B3
:1037E00046F8217003E05E1CF3B2072BE2DD00BF58
:1037F00000BF00BF00BF9CE70080092000C002405E
:10380000CCDC070010B5002807DACA06140E3F4AC0
:1038100000F00F031B1FD45403E0CA06130E3C4AEA
:10382000135410BD10B5002400BF04E01F2160B286
:10383000FFF7E8FF641C282CF8D9002404E00020DE
:10384000344941F82400641C032CF8D307200246B5
:103850002E4B0C3B19684FF6FF0319402E4B0B43C0
:1038600043EA0221294B0C3B196000BF00202B4981
:1038700008602B49086010BD70B504460D46294606
:103880002046FFF7BFFF00BF04F01F010120884062
:1038900061094FF0E02202EB8101C1F8000100BF95
:1038A000012070BD4FF0E022D2F8002102601D4AD5
:1038B000126822F07E420A606FF400321A4B1A60DE
:1038C0006FF07E43194A1360144A126802F1010234
:1038D000124B1A6070476FF40032134B1A606FF08E
:1038E0007E43134AC2F884304FF0E022C2F8000150
:1038F00021F07E424FF0E023C3F80421084A126809
:1039000002F10102064B1A607047000018ED00E05A
:1039100000E400E0F01800100000FA05600100105B
:103920006401001004E100E080E100E084E100E0D7
:1039300000E100E010B56D48007840F001006B49EF
:103940000870FDF725FD10BD6848007A20F00200E0
:10395000801C664908720846007AC0F34000C043E4
:10396000097A60F3410161480172007840F001007A
:103970005E490870704710B55D48006820F400701B
:1039800000F500705B49C1F8C4004FF000005749D2
:10399000087408730846007A20F0020000F1020063
:1039A00008724FF0000008720870084690F8200076
:1039B00020F03F0081F82000084690F8240020F015
:1039C0003F0081F82400084690F8280020F01F00EE
:1039D00081F828000846808E6FF308008886084624
:1039E000808F6FF30B0000F2DD7088870846007847
:1039F00020F0010000F1010008700846007B20F073
:103A0000010000F1010008730846007A20F0100060
:103A100000F1100008720846006C6FF31000086493
:103A20000846006C20F4003008644FF000014FF0AD
:103A30001100FFF721FF00202F490860FFF784FFE6
:103A400010BD00B52948007A20F00200801C2749EB
:103A50000872002008720846007A20F00100401C1D
:103A600008720846007820F00100401C08700846E3
:103A7000007A20F01000103008720846006C6FF3D6
:103A8000100008640846006C20F400300864002030
:103A900019490860FFF758FF00BD00B5112001214A
:103AA0008140164A430942F8231000BF0F48007AAC
:103AB00020F001000D490872FFF746FF00BD00B578
:103AC000FFF742FF0948007A20F00100401C074937
:103AD000087211200121814042094FF0E02303EBDD
:103AE0008202C2F8001100BF00BD00000040024089
:103AF000C4C00F4000C00F408001001080E100E012
:103B0000F0B5044600210025B64B00BF08E0FF20B9
:103B100091FBF0F600FB161018705B1C481C81B27C
:103B2000C829F4DB2246002106E001F10A00C0B2F8
:103B30001060121D481C81B2C829F6DBA94B002178
:103B40000CE0FF2091FBF0F600FB16101E78B0424F
:103B500001D0681C85B25B1C481C81B2C829F0DB0F
:103B6000224600210EE001F10A00FF2690FBF6F745
:103B700006FB17001668B04201D0681C85B2121D02
:103B8000481C81B2C829EEDB012D02DD0021002096
:103B9000F0BD0120FCE72DE9F04188B0924B0FCB3E
:103BA00004AC0FC4904B1033D3E901021968DB68F1
:103BB00001AC0DC400916E4604AE002400258B4874
:103BC000006840F400608A49C1F8C40041F2100066
:103BD000884908604FF00100874908604FF00000F5
:103BE00088608648D0F8380140F001008349C1F868
:103BF00038010846D0F8400140F00100C1F840010A
:103C00000846D0F8440140F00100C1F844010846DC
:103C1000D0F8480140F00100C1F848010846D0F84A
:103C20004C0140F00100C1F84C010846D0F85001A9
:103C300040F00100C1F850010846D0F8540140F0AE
:103C40000100C1F854010846D0F8600140F00100BD
:103C5000C1F860010846D0F8640140F00100C1F8E5
:103C600064010846D0F8700140F00100C1F870010D
:103C70000846D0F8740140F0010061490860614DC8
:103C800000BF05E0286840F0010028602D1D641C7D
:103C9000102CF7D35B4D8035002405E0286840F0F8
:103CA000010028602D1D641C182CF7D356480068AD
:103CB00040F001005149C1F860020846D0F86402A2
:103CC00040F00100C1F864020846D0F8780240F0E4
:103CD0000100C1F878020846D0F87C0240F00100EB
:103CE0004A4908604FF08100494908604FF00001DF
:103CF0004FF00A0000F0C1FB81203F49C1F82002CB
:103D000000210A2000F0B9FB002140F6B83000F095
:103D1000B4FB022038490863032048630720886306
:103D20000220C863052008640120486405208864D7
:103D3000C8640720086501204865022088650320C3
:103D400088650120886240F2033032490860A1F1A1
:103D50000401306808604FF080002F4908604FF080
:103D600000012E4800F089FB40F2831022490862CE
:103D700000212B4800F081FB40F203101E4908622D
:103D800002204862002400E0641C402CFCD31C206C
:103D9000194948628320086231793320884040F015
:103DA000204004680020144908621E48006840F45E
:103DB0000020C1F800014FF0000142F6E06000F081
:103DC0005CFBB068FFF79CFE4FF02047D6F80C80F4
:103DD0004146384654F083FC08201349086008B077
:103DE000BDE8F081008000A0F0E20700C4C00F40F1
:103DF00000C00F40DCC10F4000C0092000C00240DD
:103E000074C1024080C1024060C202407CC20240D4
:103E100000C2092004C1092020C10920C0270900CF
:103E2000C0D4010000C109202CC2092010B50278BD
:103E3000C1EBC103FC4CE2544278C1EBC103234403
:103E40005A708278C1EBC10323449A70C278C1EBE7
:103E5000C1032344DA700279C1EBC10323441A7110
:103E60004279C1EBC10323445A718279C1EBC1038A
:103E700023449A7110BD10B501460022002011B1F3
:103E8000012916D10AE0E948E94B1B6823F4001325
:103E900003F50013E74CC4F8C4300BE0E648E44BEC
:103EA0001B6823F4806303F58063E24CC4F8C430DC
:103EB00000E010BD00BFC1EBC103DB4C23445B78C5
:103EC0003C2494FBF3F3DAB202F00103002B01DD92
:103ED000531CDAB2022A05DA036923F0FF039B1CA4
:103EE00003610BE03C2A05DB036923F0FF033C334D
:103EF000036103E0036962F307030361C1EBC103DC
:103F0000C94C2344DB782BB1036823F08003803352
:103F1000036003E0036823F080030360C1EBC10387
:103F2000C14C23449B782BB1036823F040034033FA
:103F3000036003E0036823F040030360C1EBC103A7
:103F4000B94C23445B79042B05DC036823F00F0391
:103F5000DB1C036015E0C1EBC103B34C23445B7968
:103F6000102B09DCC1EBC10323445B795B1E0468A1
:103F700063F30304046004E0036823F00F030F33CA
:103F80000360036823F030030360C1EBC103A64C58
:103F900023441B7923B1436823F00403436004E006
:103FA000436823F004031B1D4360436823F00203AE
:103FB0009B1C436000BF7CE70146C1EBC1009A4AED
:103FC000105C7047F0B504460A46002500262B46D3
:103FD00000210AB9954902E0012A00D1964900233F
:103FE00009E0088985B218465B1C41F6FF77B842A4
:103FF00001D30020F0BD087B10F0040FF1D10023A5
:1040000007E018465B1C41F6FF77B84201D3002059
:10401000F0E7087B00F012000228F2D18C60002348
:1040200007E018465B1C41F6FF77B84201D3002039
:10403000E0E7087B00F014000428F2D1088986B27A
:104040003046D7E7F0B503460024322900DDF0BD45
:1040500000200CE01D8802EBC20606EB0216774F2B
:1040600007EB860626F810509B1C451CA8B2884218
:10407000F0DB0AB96D4C04E0012A01D16E4C00E07E
:10408000E5E700200BE002EBC20505EB02156B4EE5
:1040900006EB850535F81050A560451CA8B288428E
:1040A000F1DB00BFD3E770B50023322800DD70BD1F
:1040B00009B95E4B04E0012901D15F4B00E0F6E74E
:1040C00000220AE01C8901EBC10505EB01155C4EDD
:1040D00006EB850525F81240521C8242F2DB00BF38
:1040E000E5E7F0B502460C460023002501260CB991
:1040F0000020F0BD0AB94D4902E0012A00D14E4925
:10410000002331E0002507E028466D1C41F6FF77CB
:10411000B84201D30020ECE7087B10F0020FF3D087
:1041200002EBC20000EB0210444F07EB800030F8B6
:1041300013008860002507E028466D1C41F6FF77D4
:10414000B84201D30020D4E7087B10F0100FF3D160
:10415000088902EBC20707EB0217DFF8E4C00CEB9B
:10416000870727F813005B1CA342CBD33046C0E778
:104170002DE9F04303460C460026354600211F4634
:10418000322C01DDBDE8F083002010E0B3F800C060
:1041900002EBC20808EB0218DFF8A09009EB8808D0
:1041A00028F810C09B1C00F1010C1FFA8CF0A042F3
:1041B000ECDB0AB91D4904E0012A01D11E4900E0E7
:1041C000E0E700205EE000250AE0B1F808C01FFA31
:1041D0008CF6AC466D1C41F6FF78C44500D3D1E7A0
:1041E00091F80CC01CF0040FEFD1002506E0AC469E
:1041F0006D1C41F6FF78C44500D3C3E791F80CC0AD
:104200000CF0120CBCF1020FF1D102EBC20C0CEB62
:10421000021CDFF8288008EB8C0C3CF810C0C1F8B9
:1042200008C0002515E00000FC18001000800840C0
:10423000C4C00F4000C00F4000000340121900101E
:104240003E1A0010AC466D1C41F6FF78C44500D301
:1042500098E791F80CC00CF0140CBCF1040FF1D1EC
:10426000B1F808C002EBC20808EB0218DFF884902E
:1042700009EB880828F810C09B1CBF1C00F1010C3A
:104280001FFA8CF0A0429EDB00BF7BE710B5002236
:104290001146002308B9184B02E0012800D1174B42
:1042A000002103E01C89A2B24C1CA1B20829F9DB51
:1042B00010BD30B505460C462846FFF77DFE217837
:1042C000884216D029462046FFF7B0FDC5EBC50051
:1042D0000B49084421680160A1888180A17981711E
:1042E0002846FFF7C8FD002001E0411C88B20A28DB
:1042F000FBDB30BD3E1A0010008008400000034088
:10430000FC18001010B501204FF040210860FCF7A8
:10431000A8FF4FF0402080684FF040218969884213
:1043200003D900204FF04021886010BD10B5012056
:10433000A1490860A148006810B1A0480068804702
:1043400010BD10B501209E49086058F025FB10BD36
:1043500010B501209B4908606FF07F4088619A4842
:10436000006810B198480068804796488068954971
:104370008969884202D900209249886010BD2DE9E0
:10438000F04106460C460027032C1FDC8F480068CE
:104390008F4951F8241040EA01008E49C1F8C40049
:1043A0008D4850F834504FF00000A8602861E86054
:1043B000AE614FF00300686104F1060104F10102EF
:1043C00050B2FFF759FA00B9012700BF3846BDE8DF
:1043D000F0810146804A52F83100426822F0020220
:1043E000921C4260426822F002024260704730B183
:1043F00001280DD0022812D003281ED116E04FF05C
:104400004021496821F001014FF04022516015E040
:104410006949496821F00101674A51600EE0684925
:10442000496821F00101664A516007E06549496821
:1044300021F00101634A516000E000BF00BF7047F6
:1044400010B5022803DA820302F140210BE0024694
:1044500000EBD2746410A0EB4403594A4FF480443B
:1044600004FB032100BF4A6822F00102521C4A608B
:104470004A6822F002024A6010BD30B502460B467F
:10448000002000210024084663B108E0002001E07C
:104490000146401C45F6C055A842F9D9641C944217
:1044A000F4D305E0002001E00146401C9042FBD916
:1044B00030BD10B52DED048BB0EE409A19EE100A08
:1044C00059F09CF941EC100BB0EE408AF0EE608A96
:1044D0009FED420B53EC102B51EC180B58F064FF7E
:1044E00041EC100BB0EE408AF0EE608A9FED3D0B80
:1044F00053EC102B51EC180B58F056FF41EC100BFD
:10450000B0EE408AF0EE608A9FED380B53EC102B32
:1045100051EC180B59F088F841EC100BB0EE408AC2
:10452000F0EE608A51EC180B58F064FE0446204609
:10453000BDEC048B10BD10B52DED048BB0EE409A90
:1045400019EE100A59F05AF941EC100BB0EE408AFE
:10455000F0EE608A9FED210B53EC102B51EC180B01
:1045600058F022FF41EC100BB0EE408AF0EE608A6A
:104570009FED1E0B53EC102B51EC180B59F054F817
:1045800041EC100BB0EE408AF0EE608A51EC180B53
:1045900058F030FE04462046BDEC048B10BD09499E
:1045A00088610021074AD16070473B21054AD160EC
:1045B000114688617047000000800040A80100108B
:1045C0000000094000400940AC010010C4C00F4089
:1045D00030E3070000C00F4010E3070000000000B8
:1045E00000408F400000000000004E40000000002E
:1045F0000000F03FAA20410708725520087270475A
:1046000010B501210520FFF738FF4FF080400078FA
:1046100020F00100401C4FF080410870FFF7EAFFD6
:104620004FF08040007820F004004FF08041087087
:1046300010BD00B52B494FF08040406861F3170072
:104640004FF0804148600846007820F00100401C8F
:1046500008700846007820F00200801C08700846A8
:10466000007820F004000870FFF7C4FF4FF080408E
:10467000007820F00100401C4FF0804108700120BC
:1046800000BD4FF08040007810F0010F0FD0AA203D
:10469000410708724007C06800F07F40C8600846C4
:1046A000406800F07F4048605520087218E04FF0E5
:1046B0008040406800F07F40401C4FF080414860DF
:1046C0000846007820F00100401C08700846007879
:1046D00020F00200801C0870AA2008725520087281
:1046E00070470000B0710B00FD48016811F0010F28
:1046F00004D0016841F00101016007E0016811F098
:10470000020F03D0016841F0020101607047F548D3
:10471000016811F0010F04D0016841F0010101604E
:1047200007E0016811F0020F03D0016841F00201B7
:104730000160704702460AB9E94B00E0E94B1846B0
:10474000012904D1436843F00103436003E0436857
:1047500003F00A034360704702460AB9E04B00E0E9
:10476000E04B1846012904D1436843F00803436035
:1047700003E0436803F003034360704770B50346EA
:104780000BB9D74C00E0D74C2046012A0ED1C56C9E
:1047900001F00704012C01DA002404E001F108040F
:1047A000012606FA04F42543C56410E0C56C01F047
:1047B0000704012C01DA002404E001F108040126B9
:1047C00006FA04F447F67C66A6433540C56470BD1E
:1047D00010B502460AB9C24B00E0C24B18464B78EE
:1047E000012B0AD10B7803F0070303EB43040123E9
:1047F000A3404469234343610CE00B7803F00703B3
:1048000003EB43040123A340B74C24EA03034469A8
:1048100023404361CB78012B0CD10B7803F00703C5
:1048200003EB43035B1C012404FA03F344692343B1
:1048300043610CE00B7803F0070303EB43035B1CBD
:1048400001249C40A84BA3434469234043618B78D7
:10485000012B0CD10B7803F0070303EB43039B1CE4
:10486000012404FA03F34469234343610CE00B7809
:1048700003F0070303EB43039B1C01249C409A4B6A
:10488000A34344692340436110BD70B504461D46EF
:104890000CB9934B00E0934B1846072913D2DFE87D
:1048A00001F00406080A0C0E100082610BE0C261E0
:1048B00009E0026207E0426205E0026403E042644C
:1048C00001E0826400BF00BF066D072902DA012300
:1048D0008B4000E000231E4306653DB9436843F06A
:1048E00002034360436803F00903436070BD01465F
:1048F00009B97B4A00E07B4A1046426842F0020256
:104900004260426822F0020242607047012911D1E0
:1049100030B9764A126842F02002754BC3F8C420C1
:10492000012819D1714A126842F04002704BC3F855
:10493000C42011E081B930B96C4A126822F020021B
:104940006B4BC3F8C420012806D1684A126822F0D4
:104950004002674BC3F8C42070472DE9FC5F064650
:104960008A4693460EB95E4800E05E4804465D46BE
:10497000A94626B901210020FFF7C8FF05E0012E56
:1049800003D101210846FFF7C1FF01274FF00008BE
:104990003F2020600020606020676061A062E064CA
:1049A0002065BAF1000F1AD1287818B96868401E3E
:1049B000E06024E000213A466868A0FB023E01FB6B
:1049C00007E100FB08104B4ACDE900300023DDE988
:1049D000000153F0BDFC0746781EE0600FE0BAF11D
:1049E000010F0CD199F8000000F0030099F80110B4
:1049F00001F0030140EA8100216F08432067BDE810
:104A0000FC9F3FB581B004460D4624B90E212720F6
:104A1000FEF732FF05E0012C03D10F210920FEF73C
:104A20002BFF03AA00212046FFF797FF2046FFF740
:104A30005EFF012300212046089AFFF726FF002091
:104A40008DF800008DF8010001208DF80300002092
:104A50008DF8020069462046FFF7BAFE0123294679
:104A60002046099AFFF711FF8DF8005000208DF8BD
:104A700001008DF803008DF8020069462046FFF71B
:104A8000A7FE012229462046FFF778FE0121204695
:104A9000FFF762FE01212046FFF74CFE05B030BD56
:104AA0002DE9F04186B006460F4614461D46DDF856
:104AB000308000208DF810000F4890FBF8F0059032
:104AC00002940395DDE90201CDE900013946304643
:104AD000DDE90423FFF795FF06B0BDE8F081000093
:104AE0000040014000800140FFFF1F00C4C00F4094
:104AF00000C00F4040420F00C0270900014611B11D
:104B0000012904D101E0154803E0154801E0002027
:104B100000BF00BF704770B503460BB90F4C00E0F3
:104B20000F4C204672B9C56C01F00704022C01DA63
:104B3000002401E001248C4047F67C66A643354002
:104B4000C5640AE0C56C01F00704022C01DA0024F8
:104B500001E001248C402543C56470BD0040014044
:104B60000080014070B504460CB9F84D08E0012CF6
:104B700001D1F74D04E0022C01D1F64D00E070BDEB
:104B80006868C6B216F0070F7ED1F0100C287BD2F1
:104B9000DFE800F0060B24548390FD7AFCFBFAF961
:104BA000142028600820A861A5E104EB8400EA49EC
:104BB00011F83000A8602820A861022004EB8401CD
:104BC000E54A02EBC10181F8260004EB840102EB07
:104BD000C10101F11400FCF716FF8CE1C4EBC40025
:104BE00000EB0420DD4901EB80004078022808D169
:104BF00004EB8400D84911F8300040F00100A860AF
:104C00000FE0C4EBC40000EB0420D44901EB8000AA
:104C10004078012805D104EB8400CF4911F8300019
:104C2000A8602020A8610820A861022004EB84016C
:104C3000C94A02EBC10181F826005CE104EB840063
:104C4000C54901EBC0004078002819DD04EB840061
:104C5000C34901EB80000A3004EB8401BE4A02EB39
:104C6000C1018978405CA86004EB8400114601EB27
:104C7000C0008078401C04EB840102EBC101887005
:104C8000042004EB840100E032E1B34A02EBC101ED
:104C900081F826000820A8612DE1052004EB84019D
:104CA000AD4A02EBC10181F82600102028600820DF
:104CB000A86120E104EB8400A74901EBC0008078E3
:104CC00004EB8401A44A02EBC1014978884219DA55
:104CD00004EB8400A24901EB80000A3004EB84015C
:104CE00002EBC1018978405CA86004EB84001146A6
:104CF00001EBC0008078401C04EB840102EBC10191
:104D000088706EE0C4EBC40000EB0420934901EB13
:104D10008000407802280AD124202860012004EB7A
:104D200084018D4A02EBC10181F8260059E0C4EBF1
:104D3000C40000EB0420894901EB80004078012881
:104D40004FD1C4EBC40000EB042001EB80004069AC
:104D500004EB8401824A02EB81010989884230D246
:104D6000C4EBC40000EB04207C4901EB80001C3044
:104D7000C4EBC40101EB0421784A02EB81014969CB
:104D8000405CA86004E0A0E044E03EE031E02BE0BD
:104D9000C4EBC40000EB0420114601EB8000406925
:104DA000401CC4EBC40101EB042102EB810148610A
:104DB000042004EB8401684A02EBC10181F826005B
:104DC0000FE010202860062004EB8401624A02EB09
:104DD000C10181F82600002004EB840102EBC1012F
:104DE000C8700820A86186E0102028600820A8610B
:104DF00081E0042004EB8401574A02EBC10181F8F1
:104E0000260028600820A86175E01020286008208E
:104E1000A86170E0C4EBC40000EB04204F4901EB33
:104E20008000407802284BD1A868C1B2C4EBC4000E
:104E300000EB0420494A02EB80001C30C4EBC402A2
:104E400002EB0422454B03EB820252698154C4EB0E
:104E5000C40000EB0420194601EB80004069401CAF
:104E6000C4EBC40101EB04211A4602EB8101486145
:104E7000C4EBC40000EB0420114601EB8000406944
:104E800004EB8401364A02EB81010989884209D288
:104E9000042004EB8401304A02EBC10181F82600B2
:104EA00028600AE00420A86104EB84012A4A02EB8E
:104EB000C10101F10E00FCF7A6FD0820A86103E086
:104EC000102028600820A86115E0062004EB84016A
:104ED000214A02EBC10181F82600002004EB840185
:104EE00002EBC101C870102028600820A86102E010
:104EF0000820A86100BF00BF00BF40E610B5012038
:104F0000FFF730FE10BD10B50020FFF72BFE10BDDF
:104F100010B50220FFF726FE10BD024600200BE070
:104F2000104B33F82030934204D10E4B03EB800337
:104F3000997004E0431C98B2B0F5FA7FF0DB70473B
:104F400070B5044684B9014D18E0000000C001406E
:104F500000C0054000000A400C001AA0CC001AA0B6
:104F6000D0FF19A058FA1BA0012C01D1FE4D05E07D
:104F7000022C01D1FD4D01E0002070BD1020286001
:104F80000820A86104EB8401F94A02EBC10101F198
:104F90000E00FCF738FD0FE004EB8401F44A02EB4D
:104FA000C10101F10E00FCF739FD0A230022181A95
:104FB0008A4101D20020E0E7286810F0100FEBD101
:104FC00000214FF47A70FFF758FA0120D5E770B549
:104FD00004460CB9E74D09E0012C01D1E24D05E092
:104FE000022C01D1E14D01E0002070BD202028609D
:104FF00004EB8401DE4A02EBC10101F10800FCF779
:1050000002FD1CE004EB8400D94901EBC00090F8DC
:105010002600022801D10120E7E704EB8401D44AED
:1050200002EBC10101F10800FCF7F8FC0A230022A1
:10503000181A8A4103D22020A8610020D5E7E1E7B1
:105040002DE9F04705462C7804EB8400CA4901EBB2
:1050500080000079401C04EB8401C74A02EB810107
:10506000087104EB840102EB8101C8890221FFF77A
:1050700054FF002004EB8401BF4A02EB81018874D5
:1050800004EB8400114601EB800090F8038004EBF0
:10509000840001EB8000007904EB840102EB8101C4
:1050A000897888420ED1002004EB8401B04A02EBDB
:1050B000C101887004EB840102EBC101487001203A
:1050C000BDE8F08704EB8400AB4901EB8000017977
:1050D00004EB8400A84A02EB80008078401E8142E5
:1050E00010D1287EC4EBC40101EB0421A34A02EBDA
:1050F0008101097D401A04EB84019F4A02EB810182
:10510000C8700BE004EB84009B4901EB8000007C3D
:1051100004EB8401984A02EB8101C870D5F809209C
:10512000D5F80D0012EB080140F10000C5F8091098
:10513000C5F80D00002615E0D5F80990D5F80D70DA
:10514000F2004846394653F08DF9C2B204EB8400B0
:10515000894901EB80000A30A978891B491E425415
:10516000701CC6B2A878B042E6DCC4EBC40000EB09
:105170000420824901EB8000808A04EB84017E4A8E
:1051800002EB8101C88004EB8400114601EB800032
:10519000008904EB840102EB8101C978084404EB27
:1051A000840102EB81010881002004EB8401704A34
:1051B00002EBC1018870A87804EB840102EBC10105
:1051C000487000207CE72DE9F05F05462C78002030
:1051D00004EB8401684A02EB81010871402004EB72
:1051E000840102EB8101088204EB8400114601EB8B
:1051F0008000B0F810C0D5F80970D5F80D106246DF
:105200000023384653F0A4F81FFA82FB288B584439
:1052100086B204EB8400584901EB8000008A96FBBB
:10522000F0F100FB116070B904EB8400524901EB0E
:105230008000008A96FBF0F004EB84014E4A02EBFA
:10524000810188700EE004EB84004B4901EB800083
:10525000008A96FBF0F0401C04EB8401464A02EB06
:105260008101887004EB8400434901EB8000807861
:10527000012806DA012004EB84013F4A02EB810198
:10528000887004EB84003C4901EB800080780128A1
:1052900007D1287E04EB8401374A02EB8101C870F4
:1052A0000DE004EB8400344901EB8000007CA0EBAE
:1052B0000B0004EB8401304A02EB8101C870002727
:1052C00015E0D5F80990D5F80DA0FA0048465146EA
:1052D00053F0C8F8C2B204EB8400274901EB800107
:1052E0000A31A878C01B401E0A54781CC7B2A8789F
:1052F000B842E6DC0020C4EBC40101EB04211F4AE4
:1053000002EB81014861C4EBC40000EB04201146AC
:1053100001EB8000808A04EB8401174A02EB8101D3
:10532000C88004EB8400114601EB8000C07804EBD8
:10533000840102EB81010881287A04EB84010C4A84
:1053400002F83100002004EB840102EBC1018870F7
:10535000A87804EB840102EBC1014870A88804EB33
:105360008401054A0CE0000000C0054000000A402E
:105370000C001AA000C00140D0FF19A0CC001AA058
:1053800002EB8101C881002004EB840102EB810162
:105390008874BDE8F09F70B505462C7804EB840056
:1053A000ED4901EBC000007938B9012004EB84011C
:1053B000E94A02EBC101087101E0002070BD002044
:1053C000A880C4EBC40101EB0421E44A02EB810094
:1053D00040F21C42294653F026F92846FFF7F3FE17
:1053E0002046FFF7F4FD50B92046FFF7A9FD002045
:1053F00004EB8401D84A02EBC1010871DEE704EB3B
:105400008401D54A02EBC10101F11400FCF7FBFA5B
:10541000002600BF04EB8401CF4A02EBC10101F179
:105420001400FCF7FBFA04EB4402CD4B03EBC20281
:1054300052690023101A8B410DD22046FFF780FDE0
:1054400004EB8401C44A02EBC10101F11400FCF732
:10545000DAFA00263AE004EB8400BF4901EBC00011
:1054600090F82600052804D12046FFF769FD0026A4
:105470002CE004EB8400B84901EBC00090F8260052
:105480000628C7D104EB840001EBC000C0780028D7
:10549000C0D12846FFF7D4FD08B1012616E000214F
:1054A000B048FEF7EAFF2046FFF791FD20B92046FD
:1054B000FFF746FD002609E004EB8401A64A02EB53
:1054C000C10101F11400FCF79EFAA3E700BF002020
:1054D00004EB8401A04A02EBC101087104EB8401D2
:1054E00002EBC10181F8260000219E48FEF7C5FFAE
:1054F000304663E770B504460E4604EB4400984915
:1055000001EBC000468004EB440001EBC000964A6A
:1055100006CAC0E9011204EB4400914901EBC00046
:10552000924A06CAC0E9031204EB44008C4901EB1D
:10553000C0004088800104EB4401894A02EBC101AC
:1055400048612CB98A4D01208A49C866086713E072
:10555000012C06D1884D40F2B3408649C8640865E5
:105560000AE0022C06D1854D40F2B24081498862A2
:10557000C86201E0002070BD6C20A86104EB44000B
:10558000774901EBC0004088B0F5C87F1DD804EB17
:10559000440001EBC00040884FF47A7148437849D9
:1055A0000968B1FBF0F04008686104EB44006C4905
:1055B00001EBC00040884FF47A7148437049096894
:1055C000B1FBF0F04008286102E04B2068612861DF
:1055D00024B1012C10D0022C2AD11BE069480068AC
:1055E00040F080006849C1F8C4004FF007014FF057
:1055F0000A00FEF741F91DE06248006840F400200F
:105600006149C1F8C4004FF008014FF00B00FEF7EC
:1056100033F90FE05B48006840F080605A49C1F8F8
:10562000C4004FF009014FF00C00FEF725F901E02E
:105630000020A0E700BF40202860002004EB840188
:10564000454A02EBC101087104EB840102EBC10180
:1056500081F82600C4EBC40101EB04213F4A02EBB0
:1056600081014861C4EBC40101EB042102EB81011B
:10567000887001207FE770B5ADF5846D04460D4656
:1056800016468DF8046001208DF806000790002171
:1056900008A8079A52F0F9FFE0B240F058008DF8E0
:1056A0000C000022CDF80D20CDF8112001208DF83E
:1056B00005008DF8205001A8FFF76DFE60B10020B5
:1056C0009DF8041001EB8101234A02EBC10108712E
:1056D00001200DF5846D70BD0020FAE7002100EB7C
:1056E00080021D4B03EBC202917000EB8001274A40
:1056F00002EB8101C988C0EBC00202EB0022174B0C
:1057000003EB8202516100EB8001204A02EB810130
:10571000897C491C00EB80021C4B03EB82029174D4
:1057200000EB80011A4602EB8101897C02290BDB28
:10573000052100EB800203F82210002100EB80021B
:1057400003EB8202917405E0012100EB80020F4B14
:1057500003F82210704700000C001AA0CC001AA019
:1057600084001AA0C0D4010048E3070040E307000A
:1057700000C0014000C0024000C0054000000A40D7
:10578000FC000010C4C00F4000C00F40D0FF19A0A3
:1057900030B50A46FE4B53F82030FE4C54F82040FA
:1057A000A34200D130BD30B1012806D0022806D076
:1057B000032808D105E0F84906E0F84904E0F84973
:1057C00002E0F84900E0EDE700BF1CE000BF0B7D00
:1057D00013F0200FFBD000EB4003F34C04EB03234A
:1057E000EB4C54F820401B5D0B70E94B53F8203014
:1057F0005B1C4FF44074B3FBF4F504FB1533E44C2D
:1058000044F82030521E002AE0D100BFCAE72DE93B
:10581000F04104460026002700BF34B1012C06D019
:10582000022C06D0032C08D105E0DB4D07E0DB4D50
:1058300005E0DB4D03E0DB4D01E0BDE8F08100BF9A
:10584000A868C6B2761006F00706032E4BD12F7D4E
:1058500017F09E0F02D095F80080EEE717F0010FC9
:105860002BD095F80080D14850F82400401C4FF40C
:105870004071B0FBF1F201FB1200CD4951F8241048
:1058800088421BD00020CB4941F8240004EB44009F
:10589000C94901EB0020C54951F8241000F80180E6
:1058A000C24850F82400401C4FF44071B0FBF1F2A4
:1058B00001FB1200BD4941F8240066E0BD4850F8E4
:1058C0002400401CBB4941F82400B0F5407F5CD364
:1058D0000020B64941F82400B54941F82400B549F3
:1058E00041F8240051E0022E41D195F80080AF48E4
:1058F00050F82400401C4FF44071B0FBF1F201FB62
:105900001200AB4951F8241088421BD00020A9494D
:1059100041F8240004EB4400A74901EB0020A3490F
:1059200051F8241000F80180A04850F82400401CD1
:105930004FF44071B0FBF1F201FB12009B4941F8BA
:10594000240022E09B4850F82400401C994941F86B
:105950002400B0F5407F18D30020944941F824007A
:10596000934941F82400934941F824000DE0062EA4
:1059700001D1B04609E0012E07D12F7D17F0200F8D
:1059800003D001212046FFF703FF00BF55E700B514
:105990000020FFF73CFF00BD00B50120FFF737FFF7
:1059A00000BD00B50220FFF732FF00BD00B50320A7
:1059B000FFF72DFF00BD2DE9F04704468946154647
:1059C00015B1B5F5407F01DDBDE8F087714850F8AD
:1059D00024706F4850F82480474505D3A7EB080092
:1059E000C0F5407086B202E0A8EB070086B2B5426F
:1059F00002DCB6F5407F00DDE6E74FF0000A1BE071
:105A000099F8000004EB4401674A02EB0121614A66
:105A100052F82420885409F101095E4850F8240006
:105A2000401C4FF44071B0FBF1F201FB12005949E8
:105A300041F824000AF1010AAA45E1D301212046D8
:105A4000FFF7A6FE00BFBFE72DE9FF4F8FB004466A
:105A500005200E9000200D9034B1012C20D0022C96
:105A60003ED0032C79D157E05448806840F0310093
:105A7000524988600846C06840F03100C86050480C
:105A8000006840F008004F49C1F8C4004E4EDFF8EE
:105A90003CA1DFF804B150460A904D480B9060E0FD
:105AA0004C48006840F032004449C1F80001084603
:105AB000D0F8040140F03200C1F804014148D0F8A8
:105AC000C40040F010003F49C1F8C400424EDFF866
:105AD0000CA1DFF8C8B050460A9041480B9040E056
