:020000040002F8
:10000000C0CA00106D28020075280200772802007F
:10001000792802007B2802007D2802009EF3FFEF72
:100020000000000000000000000000007F28020027
:1000300081280200000000008328020085280200B9
:10004000894B020089480200B1480200C7480200FB
:10005000D5480200BF610200C9610200D3610200FD
:10006000DD610200872802001350020009500200DF
:100070001D500200000000008728020087280200AF
:1000800087280200A93E0200872802008728020074
:10009000872802008728020087280200872802009C
:1000A00087280200AF32020087280200872802005A
:1000B000199B020087280200872802008728020077
:1000C000872802008728020087280200872802006C
:1000D000872802008728020087280200872802005C
:1000E0008728020000F002F800F084F80AA090E8E7
:1000F000000C82448344AAF10107DA4501D100F0E3
:1001000079F8AFF2090EBAE80F0013F0010F18BF2B
:10011000FB1A43F00103184754190500D4190500D0
:100120000A444FF0000C10F8013B13F0070408BF1D
:1001300010F8014B1D1108BF10F8015B641E05D0BB
:1001400010F8016B641E01F8016BF9D113F0080F70
:100150001EBF10F8014BAD1C0C1B09D16D1E58BF02
:1001600001F801CBFAD505E014F8016B01F8016B39
:100170006D1EF9D59142D6D370470000103A24BFC6
:1001800078C878C1FAD8520724BF30C830C144BFFC
:1001900004680C607047000000230024002500263E
:1001A000103A28BF78C1FBD8520728BF30C148BFDA
:1001B0000B60704766290BF04BA7642904F008A771
:1001C000002070471FB54BF0C6FE9DE8030045F0C8
:1001D00079F945F0D7FC0400002000214AF026FF01
:1001E000401C6060002000214AF00AFFE0601FBD53
:1001F00010B510BD45F05CFE1146FFF7E3FF00F0BF
:1002000078FE46F0DBF803B4FFF7F2FF03BC46F0DC
:1002100049F9000010B5044640F627006043FE4946
:1002200001EB80008078382820D2DFE800F01C2421
:100230002F20253A363E422B464B51555E4763648C
:100240005F4C686F56267374757AA1A1A17B69898A
:1002500081825AA17C6A4D30997D909DA17631278B
:1002600032A1A1916B92204637F00EFA80E0204631
:1002700037F066FE7CE07BE000BF00BF204637F031
:10028000BEFB75E020463AF075FB71E000BF00BF91
:1002900000BF204638F0CCFC6AE0204639F0FBF97C
:1002A00066E0204638F051F862E0204639F0AFFDB4
:1002B0005EE020463AF0D9F85AE000BF20463AF016
:1002C000D1FD55E000BF00BF20463BF0BCF84FE039
:1002D00020463BF091FC4BE000BF20463CF049FE3D
:1002E00046E00120CD49087000BF00BF20463CF029
:1002F0003CF83DE000BF204640F084FB38E000BF02
:1003000000BF00BF204640F0D3FD31E0204641F061
:1003100097FB2DE000BF00BF00BF204642F083F9ED
:1003200026E000BF00BF00BF204643F088F81FE072
:1003300000BF0120BA490870204643F0CAFB17E00D
:100340000120B849086020463EF092FC10E000BF52
:1003500000BF0220B349086020463EF089FC07E058
:10036000204643F02FFC03E0204644F00DF800BF88
:1003700000BF10BD10B5AC4803C807F085FEAB4800
:1003800003C807F081FEAA4803C807F07DFEA9480C
:1003900003C807F079FEA84803C807F075FEA74810
:1003A00003C807F071FEA64803C807F06DFEA54814
:1003B00003C807F069FEA44803C807F065FEA34818
:1003C00003C807F061FEA24803C807F05DFE16F0FF
:1003D0000BFE10BD10B5044640F6270060438E4961
:1003E00001EB80008078382820D2DFE800F01C2460
:1003F0002F20253A363E422B464B51555A476061D5
:100400005B4C656C5626707172779B9B9B786683FC
:100410007E7F5C9B79674D30937A8A979B733127F7
:10042000329B9B8B688C204637F02DFA7AE0204671
:1004300037F009FF76E075E000BF00BF204637F0D7
:10044000ACFC6FE020463AF065FC6BE000BF00BFFB
:1004500000BF204638F0E6FF64E0204639F06CFB30
:1004600060E0204638F077F85CE0204639F089FEFD
:1004700058E020463AF011F954E000BF20463AF027
:10048000CEFF4FE000BF00BF20463BF0C5F949E07A
:1004900020463BF027FE45E000BF20463DF098FA9D
:1004A00040E000BF00BF20463CF0A6FC3AE000BFA1
:1004B000204640F069FC35E000BF00BF00BF204689
:1004C00041F043FA2EE0204642F006F82AE000BF51
:1004D00000BF00BF204642F0E1FC23E000BF00BFA8
:1004E00000BF204643F0D7F91CE000BF204643F090
:1004F00012FB17E001204B49086020463EF023FC28
:1005000010E000BF00BF02204649086020463EF0D0
:100510001AFC07E0204643F0F4FD03E0204644F0D7
:10052000B0FB00BF00BF10BD10B5012049490870E5
:10053000FFF720FFA12048490870022048700020E2
:100540008870C870012008710820487100208871E7
:100550000021414803F02CFF002003F04EFF15F06E
:1005600037F941F298113D4844F061FF00203C49C1
:1005700008700024F4E040F627006043264911F893
:100580002000012847D12046FFF744FE2046FFF710
:1005900021FF40F6270060431F4901EB800080786F
:1005A00005287DD040F62700604301EB800080786D
:1005B00009287DD040F62700604301EB8000807859
:1005C000182875D040F62700604301EB8000807842
:1005D00019286DD040F62700604301EB8000807839
:1005E0001A2865D040F62700604301EB8000807830
:1005F0002F285DD040F62700604301EB8000807813
:100600001B2855D040F62700604301EB800080781E
:100610001F284DD026E0A1E0D8A28BA0A802001090
:10062000000000109410001050C1060058C10600D0
:1006300060C1060070C1060078C1060068C10600EE
:1006400098C1060080C1060088C1060090C106005E
:10065000A0C10600E000001020000010B8A78CA088
:10066000D80400A040F62700604301EB80008078AA
:1006700026281DD040F62700604301EB80008078DB
:100680002B2815D040F62700604301EB80008078CE
:100690002D280DD040F62700604301EB800000E0DC
:1006A00006E08079F84909780844F749087055E070
:1006B00040F627006043F54901EB80008078092867
:1006C0001FD040F62700604301EB80008078182897
:1006D00017D040F62700604301EB8000807819288E
:1006E0000FD040F62700604301EB800080781A2885
:1006F00007D040F62700604301EB800080782F2868
:100700001DD140F627006043E04901EB800080786E
:100710001A2803D10020DE4908800BE040F62700AC
:100720006043DA4901EB800080782F2802D1032052
:10073000D74908800120D7490870D749087040F68A
:1007400027006043D14901EB80008078052805D15E
:100750000120D24908700020CF490870601CC4B243
:10076000082CFFF608AF15F06CF917F0D7FB15F061
:10077000C5FA00200EE000EB400101EBC001C84AC1
:1007800012F82110012902D1C649087004E000BF07
:10079000411CC8B21028EEDBBB48007810B1012024
:1007A000BD49087010BD10B50024BC48007860B188
:1007B000BD49098888B201F039FB30B9BB4A1178CC
:1007C000B94A1078012201F006FA00240BE040F645
:1007D00027006043AD4901EB8000407A00B104E09E
:1007E00000BF601CC4B2082CF1DB00BF082C0BDA80
:1007F000AF48008801F01AFB30B9AE4A1178AC4A14
:100800001078012201F0E7F900240BE040F6270000
:1008100060439E4901EB8000807A00B104E000BF94
:10082000601CC4B2082CF1DB00BF082C0BDAA24814
:10083000008801F0FBFA30B9A04A11789E4A10787E
:10084000012201F0C8F900242BE040F627006043A4
:100850008E4901EB8000007AF8B140F62700604332
:1008600001EB80008078022818D040F62700604312
:1008700001EB80008078292810D040F627006043E3
:1008800001EB80008078302808D040F627006043D4
:1008900001EB80008078322800D000E003E0601C8B
:1008A000C4B2082CD1DB00BF082C0CDA84490988BB
:1008B00088B201F0BBFA30B9824A1178804A1078C8
:1008C000012201F088F900240CE040F62700604383
:1008D0006E4901EB80008078062800D000E003E03C
:1008E000601CC4B2082CF0DB00BF082C26DA764965
:1008F000098888B201F09AFA30B9744A1178724ABC
:100900001078012201F067F97149098888B201F075
:100910008DFA30B96F4A11786D4A1078012201F0D2
:100920005AF96D49098888B201F080FA30B96B4AEA
:100930001178694A1078012201F04DF900206849C8
:100940000870002411E040F6270060434F4901EB96
:1009500080008078072806D10120A04060490978EE
:1009600008435F490870601CC4B2082CEBDB5D498A
:10097000098888B201F05AFA30B95B4A1178594AAD
:100980001078012201F027F900240BE040F627003F
:1009900060433E4901EB8000407B00B104E000BFB2
:1009A000601CC4B2082CF1DB00BF082C0BDA4F48E6
:1009B000008801F03BFA30B94D4A11784B4A107863
:1009C000012201F008F94B480078C8B14A4909886A
:1009D00088B201F02BFA30B9484A1178464A1078AB
:1009E000012201F0F8F84649098888B201F01EFAA0
:1009F00030B9444A1178424A1078012201F0EBF8EC
:100A0000002414E040F627006043204901EB8000F9
:100A100080781B2808D040F62700604301EB800057
:100A200080781F2800D000E003E0601CC4B2082CCE
:100A3000E8DB00BF082C13DA032140F2DB5003F09F
:100A400062FF3148008801F0F1F930B92F4A11787E
:100A50002D4A1078012201F0BEF8032003F0B4FF04
:100A6000002458E040F627006043084901EB80006D
:100A7000807826284CD040F62700604301EB8000A8
:100A800080782B2844D044E0D80400A0D8A28BA0C2
:100A90008C070010D30400A001000010D40400A0B3
:100AA000385573A0C0000010440700104007001024
:100AB000F2060010F00600101A07001018070010C8
:100AC0003C09001038090010F4040010F004001074
:100AD0006807001064070010CC060010C80600105C
:100AE000440500A01408001010080010320800107F
:100AF00030080010D80F0010CC0F0010C80F0010E5
:100B0000D40F0010D00F0010520800105008001031
:100B100003E0601CC4B2082CA4DB00BF082C0EDA72
:100B2000FD48008801F082F930B9FC4A1178FA4A90
:100B30001078012201F04FF80020F9490870F94AB5
:100B40001178F94A1078012201F045F8F748007849
:100B5000C8B1F749098888B201F068F930B9F54A97
:100B60001178F34A1078012201F035F8F24909882A
:100B700088B201F05BF930B9F04A1178EE4A10788A
:100B8000012201F028F8002414E040F62700604319
:100B9000EB4901EB800080782A2808D040F6270036
:100BA000604301EB800080782D2800D000E003E056
:100BB000601CC4B2082CE8DB00BF082C0CDAE14949
:100BC000098888B201F032F930B9DF4A1178DD4A7C
:100BD0001078012200F0FFFF10BD7CB50025002039
:100BE0008DF802008DF8030003208DF80000182016
:100BF0008DF80100002412E0DDE9000107F044FA5D
:100C0000DDE9000107F06DFAA0402843C5B29DF868
:100C10000100401CC0B28DF80100601CC4B2082C59
:100C2000EADB28467CBD10B50024FFF7D6FF04465A
:100C300064200DF03FFB611CC8B20DF051FB601C3D
:100C4000C249088000F0E6FCC1480378C148027838
:100C5000C149C24800F088FDC1480378C148027804
:100C6000C149C24800F080FD12230422C049C14896
:100C700000F07AFD13230422BF49C04800F074FD40
:100C80000B230422BE49BF4800F06EFDBE48037826
:100C9000BE480278BE49BF4800F066FDBE480378F2
:100CA000BE480278BE49BF4800F05EFDBE480378EA
:100CB000BE480278BE49BF4800F056FD9C48037804
:100CC0009C480278BC49BD4800F04EFD9A48037824
:100CD0009A480278BA49BB4800F046FDBA48037802
:100CE000BA480278BA49BB4800F03EFDBA480378DA
:100CF000BA480278BA49BB4800F036FDBA480378D2
:100D0000BA480278BA49BB4800F02EFDBA480378C9
:100D1000BA480278BA49BB4800F026FDBA480378C1
:100D2000BA480278BA49BB4800F01EFDBA480378B9
:100D3000BA480278BA49BB4800F016FDBA480378B1
:100D4000BA480278BA49BB4800F00EFDBA480378A9
:100D5000BA480278BA49BB4800F006FDBA480378A1
:100D6000BA480278BA49BB4800F0FEFCBA4803789A
:100D7000BA480278BA49BB4800F0F6FCBA48037892
:100D8000BA480278BA49BB4800F0EEFCBA4803788A
:100D9000BA480278BA49BB4800F0E6FCBA48037882
:100DA000BA480278BA49BB4800F0DEFCBA4803787A
:100DB000BA480278BA49BB4800F0D6FCBA48037872
:100DC000BA480278BA49BB4800F0CEFCBA4803786A
:100DD000BA480278BA49BB4800F0C6FC4E480378CE
:100DE0004E480278B849B94800F0BEFC4E48037836
:100DF0004C480278B649B74800F0B6FCB6480078CF
:100E000038B1B6480378B6480278B649B64800F01B
:100E1000ABFC4C4803784C480278B449B44800F025
:100E2000A3FC4C4A11784A4A1078012200F0D3FE04
:100E30004C4A11784A4A1078012200F0CCFEAD4AA3
:100E40001178AD4A1078012200F0C5FEAB4A117846
:100E5000AB4A1078012200F0BEFE4C4A11784A4A93
:100E60001078012200F0B7FE4C4A11784A4A1078F7
:100E7000012200F0B0FE4D4A11784B4A1078012251
:100E800000F0A9FE594A1178574A1078012200F063
:100E9000A2FE5A4A1178584A1078012200F09BFEAF
:100EA0005A4A1178584A1078012200F094FE5B4AA1
:100EB0001178594A1078012200F08DFE6B4A1178A2
:100EC000694A1078012200F086FE164A1178164A07
:100ED0001078012200F07FFE7F48007830B1804A10
:100EE00011787E4A1078012200F075FEFFF75BFC56
:100EF00010BD00200A49087000F0BDFAFFF714FB8E
:100F0000FFF791FE0DF023FB00F056FB03F055FEBA
:100F100003F034FEF8E00000520800105008001002
:100F200001000010C8040010CC0400109010001044
:100F300014050010100500109C10001098100010EF
:100F4000D8A28BA0C4080010C00800100C0400A098
:100F500074040010700400105BE10200E3E0020082
:100F6000CA050010C805001099A9030005B30300C5
:100F7000657F03000BA10300F1070400F3070400E1
:100F800051D40300F7E90300AC040010A8040010DA
:100F90004FE5020017E70200380500103405001085
:100FA00059250300874C0300EC050010E8050010EC
:100FB00085C7030059C70300E5230300F12303009D
:100FC00001F7050077FD0500F4040010F00400109F
:100FD000CD190300891A0300680700106407001088
:100FE00035080400E3080400A2060010A006001063
:100FF000F7EC0300D3020400180600101C060010D2
:10100000B1C70300A1C70300DC010010D801001024
:1010100027500200B75902000C020010080200100D
:10102000716C0200876C0200F2060010F0060010DE
:10103000B9070400C30704001A07001018070010BE
:10104000D5070400DF0704003C0900103809001030
:10105000116D0400BF69040014080010100800108E
:10106000710F0400D5120400600500106405001023
:101070002757030025570300CC060010C8060010B0
:1010800083030400510704008A070010880700103A
:10109000290B0400D30D04003208001030080010A2
:1010A0001F1A04000F180400CC0F0010C80F001006
:1010B0001DDD05008DDC0500D40F0010D00F0010E1
:1010C000C9E40500A5E005004D1A04007D4F0400A9
:1010D00075EA0200330C030000000010A2080010A3
:1010E000A00800108D5804004D580400D15A040087
:1010F000415F0400A8050010AC0500108006001038
:101100008406001000F087F9FCE7000010B500200D
:1011100003F05AFC022003F057FC10BD70B50446E2
:101120000D46042C10D004DC012C07D0022C14D165
:1011300007E0082C0BD0402C0FD10BE0FE480178C3
:101140000EE0FE4801780BE0FD48017808E0FD481C
:10115000017805E0FC48017802E0FB48017800BF17
:1011600000BFFA48B0F90000814200DB0021012DE8
:1011700020D1481CC2B214E002EB8200F44B03EB16
:101180008000007C00B10AE002EB8200F04B03EB30
:101190008000007BA04201D1104670BD00BF501CF2
:1011A000C2B2EA48B0F900008242E5DBE9480078C3
:1011B000401CF2E7481CC2B216E002EB8200E44E8B
:1011C00006EB8000007C10B1501CC2B20CE002EBB8
:1011D0008200DF4E06EB8000007BA04201D110466A
:1011E000DBE7501CC2B200BFD848B0F90000824211
:1011F000E3DB002314E003EB8300D54E06EB800015
:10120000007C00B10AE003EB8300D14E06EB8000C6
:10121000007BA04201D11846BFE700BF581CC3B2F3
:101220009342E8DBC948B0F90000401CB5E710B5AF
:1012300000210120FFF772FFBF49086008460068DF
:10124000C249B1F90010884208DABB49096801EBCC
:101250008101BF4A02EB81014868804710BD10B58B
:1012600000210220FFF75AFFB449086008460068D1
:10127000B649B1F90010884208DAB049096801EBB3
:101280008101B34A02EB810148688047B248006897
:1012900018B30020B0490860B0480068401CAF494E
:1012A000086008460068402817D300200860002125
:1012B0004020FFF733FFA449086008460068A349AF
:1012C000B1F90010884208DA9F49096801EB8101F1
:1012D0009F4A02EB81014868804710BD10B5A048C5
:1012E0000068C8B100209E49086000210820FFF76F
:1012F00015FF94490860084600689449B1F9001048
:10130000884222DA8F49096801EB8101904A02EB99
:1013100081014868804718E0012091490860002158
:101320004020FFF7FBFE88490860084600688749AF
:10133000B1F90010884208DA8349096801EB81019C
:10134000834A02EB81014868804710BD10B582488E
:10135000006868B300207A4908607D48007B042853
:1013600005D17B48007C10B9794948688047012144
:101370000420FFF7D3FE724908600EE07049096847
:1013800001EB8101724A02EB81014868804701212B
:101390000420FFF7C3FE6A490860694800686B498A
:1013A000B1F900108842E9DB00206B49086010BDEC
:1013B000FFF794FF00BFFAE710B5044669480088BC
:1013C000A04204DD02F035FE00206649088010BD11
:1013D00010B500F09CFE01205F49086010BD10B5FB
:1013E0006048008860490988884213DBFFF7F0FFF6
:1013F0005E480068401E5D49086008D108605C498D
:10140000087058490988891E88B2FFF7D5FF002067
:101410005449088010BD70B54C48008800B970BDB3
:101420000024002508E005EB8500494901EB800018
:10143000007B0443681CC5B24448B0F900008542F3
:10144000F1DB14F0010F02D0FFF7F1FEE7E714F033
:10145000020F02D0FFF703FFE1E714F0040F02D000
:10146000FFF774FFDBE714F0480F02D0FFF736FFF9
:10147000D5E700BFD3E710B53E48006820F4004030
:1014800000F500403C49C1F8CC010846D0F8CC0139
:1014900020F40040C1F8CC013848006820F0010079
:1014A00000F10100C1F8D0010846D0F8D00120F0C9
:1014B0000100C1F8D0014FF0000000E0401C3049AD
:1014C0008842FBD302F068FC002140F6B73003F0FD
:1014D0001AFA02212B4803F016FA294800E0401EB0
:1014E0000028FCD102F017FE002000E0401C244937
:1014F0008842FBD302F0F9FC02F0F7FA64210020E5
:1015000004F04FFC6421012004F04BFC6421022014
:1015100004F047FC05F0E8F81B4800681B49C1F8D7
:1015200020011B48006D1A4908650846006C40F40C
:10153000807008642EE00000880000108C0000100D
:10154000900000109400001098000010B2000010ED
:10155000D0170010B0000010500000109C000010C8
:10156000A00000105E000010600000106400001079
:1015700068000010CCC10F4000C00F40D0C10F4028
:10158000808D5B00BF27090020C1024000C00240DF
:10159000008009204FF0000147F2305003F031FA8B
:1015A000012141F2883003F02CFA02F004FDFFF72C
:1015B000ADFD1BF0A9F910BD10B548F0EFFAF84BDE
:1015C0000A220021112048F0A7FDF64908700846BC
:1015D000007828B141F22E61F248007848F0DEFD33
:1015E000F14B0A220021112048F096FDEF490870C6
:1015F0000846007828B141F22F61EC48007848F0A5
:10160000CDFDEB48EB490968016047F017FE07F094
:101610005DFE10BD70B5E848E84AD2E901161368CE
:10162000D268C0E90262C0E900316421E44843F0B5
:10163000FEFE1E25642D00DD6425E1490D7008467F
:101640000278E049401C43F051FE642D04D1002291
:10165000681EDB49491C0A54002414E00020DA49C2
:1016600001EB04110870D84901EB04114860D64918
:1016700001EB04110873D44901EB04114873D349F9
:101680000860601CC4B2362CE8DB3620D0490870F4
:101690004FF0FF30CF490860CF490860CF4908605C
:1016A000CF490860CF4908600020CF490870CF4972
:1016B0000860CF490880CF490860CF490870CF49FA
:1016C0000880CF4908804FF4A061CE4843F0AFFEB8
:1016D0000020CD490880CD49C1F88000C1F88400C0
:1016E00000BF30E0C94AD2F88420402A01D101224B
:1016F00000E00022114671B1C44AD2F88420521E83
:10170000C24BC3F884201A4692F88020521C02F083
:101710003F02C3F88020BD4A92F88020BB4B93F86B
:1017200084301A4402F03F02B84B23F812001A46E4
:10173000D2F88420521CC3F884204121B44A22F8F4
:101740001010411C88B24028CCDB4FF0FF30B1496B
:101750000880B1490880B1490880B1490880B14981
:101760000880B149088070BD30B5362B19DA964C27
:1017700004EB0314647BA4B9934C04EB03142370AF
:10178000914C04EB031460608F4C04EB0314A160D4
:101790008D4C04EB0314227301248B4D05EB0315D0
:1017A0006C7330BD10B595480088401C9349088083
:1017B0004EF66020FFF700FE8C480068401C8B4905
:1017C00008600846007810F0010F23D19748808800
:1017D00042F20F71884205DA94488088401C934990
:1017E00088800AE092480078012806D100F08FFC3A
:1017F00002F01FFC00208E4908707F48007808B175
:10180000FFF7EDFD7948007810F00F0F02D10120AD
:10181000884908608848007800B910BD874800787A
:10182000002875D18648007800B1F6E715F05EFC17
:10183000844908700846007800EB400101EBC000C5
:10184000814901EB8000807E30B101281BD0022845
:101850005FD003287ED1FDE001207A49097801EBB1
:10186000410202EBC101784A02EB81018876002037
:101870007449097801EB410202EBC101724A02EBA3
:1018800081018874E8E000206E49097801EB41028B
:1018900002EBC1016C4A02EB810188830120694996
:1018A000097801EB410202EBC101674A02EB8101B9
:1018B000C8746449097801EB410202EBC101624A34
:1018C00002EB8101487D15F060FC5E48007800EB7A
:1018D000400303EBC0005C4B03EB8000017E5948E2
:1018E000007800EB400303EBC000574B03EB800094
:1018F000026A54480078904702205249097801EB67
:10190000410202EBC101504A02EB81018876A3E05B
:10191000A3E04C48007815F05DFD04464948007886
:1019200000EB400101EBC000474901EB800021467C
:10193000426A44480078904715F056FB0020414920
:10194000097801EB410202EBC1013F4A02EB810140
:10195000888300E07FE03B480178012088403B49D4
:10196000098881433948018000203649097801EB14
:10197000410202EBC101344A02EB81018874032069
:101980003049097801EB410202EBC1012E4A02EB1A
:10199000810188762E4800782A4908705CE00000B2
:1019A000678F0200300400107F900200390400109D
:1019B000607F002060040010D81D00102800001077
:1019C000E81D00103200001070140010A00000107C
:1019D000B0000010880000108C0000109000001073
:1019E0009400001098000010B4000010AC0000102B
:1019F0006A00001064000010680000105E00001013
:101A000060000010D0170010B2000010D01C0010B1
:101A1000581D0010D4000010D6000010D80000108F
:101A2000DA000010DC000010DE000010540000108E
:101A30005B0000105000001001000010D30400A053
:101A4000260400A0C0000010385573A0D60400A0E2
:101A5000C100001000E000BFA9E0FA4800780628A5
:101A60007ED2DFE800F00307122434460120F54956
:101A700008709BE0F44800781FF06AF80020F349F2
:101A800008800220EF49087090E0F0480088401C70
:101A900080B2EE490880EE490988884203DD0320C0
:101AA000E849087002E00220E64908707EE0E94853
:101AB00000F085FBE848006810B1E74800688047FF
:101AC0000020E24908800420DE49087000BFDF489A
:101AD0000088401C80B2DD490880E04909888842BE
:101AE00003DD0520D749087002E00420D5490870BD
:101AF0005CE000BFDA480078072800DD1EE0D84827
:101B0000007800EB400101EBC000D64911F820003D
:101B100070B1D348007800EB400101EBC000D1491F
:101B200001EB8000401CC8490978405C00B105E029
:101B3000CB480078401CCA490870DBE700BFC848A2
:101B40000078072813DD0020C5490870BE480078DA
:101B5000401CBD490870084600780F2803DD00E0EE
:101B600023E0002008700120B64908701EE0BC493F
:101B7000097801EB410202EBC101BA4A02EB810193
:101B8000487D15F002FBB848006830B1AE480178D6
:101B9000B3480078B44A1268904715F025FAB04867
:101BA0000078401CAE49087000E000BF00BF00BFD5
:101BB00033E610B5002002F0D0FEFFF709FCAB4879
:101BC000006820B102F023FA0120A9490870002022
:101BD000A849088010BD2DE9F04104460E4617467D
:101BE000362C03DB4FF0FF30BDE8F081A24800EB5C
:101BF0000410407B10B94FF0FF30F5E79F48B0F973
:101C00000000402802DB4FF0FF30EDE79B48B0F9C1
:101C1000000000EB80009A4901EB8000964901EB3F
:101C2000041C9CE80E10A0E80E109448B0F90000C7
:101C300000EB8000924901EB8000067300208F4981
:101C4000B1F9001001EB81018D4A02EB81010874AA
:101C50008C48D0F8840008B1012000E000208046C4
:101C6000B8F1000F13D08748D0F88000854931F8CB
:101C700010500846D0F88400401EC1F88400084681
:101C800090F88000401C00F03F00C1F88000B8F1DF
:101C9000000F20D028B27949B1F9001001EB810181
:101CA000774A02EB8101488247B17449B1F90010CB
:101CB00001EB810102EB8101886880476F48008851
:101CC000714921F815006D480088401C00B26B492D
:101CD000088028B288E74FF0FF3085E770B50446EA
:101CE000002557E005EB8500654901EB8000B0F960
:101CF0001200A0424CD12E460EE0721C02EB820272
:101D00005F4B03EB820106EB860203EB8200142299
:101D100043F031FB701C86B25848B0F90000401EF9
:101D2000B042EADC4120584921F8140053480088A9
:101D3000401E00B2514908805249D1F88410402910
:101D400001D1012100E00021084670B14D49D1F8D0
:101D50008410491E4B4AC2F88410114691F8801035
:101D6000491C01F03F01C2F88010464991F88010EB
:101D7000444A92F88420114401F03F01414A22F87C
:101D800011401146D1F88410491CC2F8841070BD6E
:101D9000681C85B23948B0F900008542A2DB00BF5B
:101DA000F5E710B50146002012E000EB8002344B4D
:101DB00003EB8202B2F912208A4207D1012200EB22
:101DC00080032F4C04EB83031A7410BD421C90B2A5
:101DD0002A4AB2F900209042E7DB00BFF5E770B570
:101DE00005460E4600241AE004EB8400244901EB6A
:101DF0008000B0F91200A8420FD136B104EB840183
:101E00001F4A02EB810188688047002004EB8401AF
:101E10001B4A02EB8101087470BD601C84B2174834
:101E2000B0F900008442DFDB00BFF5E70246002185
:101E30002EE001EB8100124B13F82000904225D1D7
:101E400001207047D8070010C8070010D007001005
:101E50008C070010D2070010040800108E07001035
:101E6000C9070010385573A008080010640000105E
:101E7000680000105E00001070140010B200001026
:101E8000D0170010D01C0010581D0010481C81B243
:101E90008A48B0F900008142CBDB0020704740281F
:101EA00000DB7047864A32F81020402A00DBF8E752
:101EB000834A32F8102002EB8202824B03EB82024B
:101EC000117300BFEDE703B583B002F0A0F8DDE9C0
:101ED000030100F0CEF901207B49087000207B4906
:101EE000087001A800F021F9794801990160BDF856
:101EF0000810818000207749087005B000BD2DE9E9
:101F0000F3432DED028B85B000BF00BF00BF9FEDF6
:101F1000720BB0EE408AF0EE608A6C4800780028C0
:101F20007ED0012802D002287BD116E0DDE907012E
:101F300000F036FA6A4A674B1B7802EBC30203C211
:101F400064480078401C63490870084600780C28F3
:101F500002DB02205D490870AAE000205B4908709E
:101F600001A800F0E2F85A4801990160BDF8081094
:101F700081806C2677076FF06B086FF000490024B2
:101F80002546002022E0564901EBC00206CA711A1C
:101F900077EB020103DA524901EBC001C0C9504995
:101FA00001EBC001D1E90021B2EB080271EB09019C
:101FB00004DA4B4901EBC001D1E90089484901EB42
:101FC000C001D1E9002114194D41401C0C28DADB75
:101FD000A41B65EB0705B4EB080465EB09050A22B1
:101FE00000232046294642F090FF04460D46C821B2
:101FF0000020091BA84102DAC824002508E06FF080
:10200000C701611A75F1FF3002DA6FF0C7042512BB
:10201000002184EA01006940084310D0002101E05A
:102020001EE01EE00846091BA84104DA44F63460AD
:102030002C49088003E044F60C602A49088020B24D
:102040002949088000202949087000BF20462946F8
:1020500043F0A5F82649086001202649087027E0CA
:1020600000BF1B48016801918088ADF80800029A02
:1020700003A800F073F840F6CA510398884205D3CC
:1020800001201249087000201249087040F68E5154
:10209000039888420BD317480078012807D1002005
:1020A000144908701048B0F900000BF0E5FB00BFC0
:1020B00000BF05B0BDEC028BBDE8FC83B200001090
:1020C000581D0010D01700105B000010C200001057
:1020D000C3000010C9000010000000000000000054
:1020E000501E0010600000106A0000106800001010
:1020F000640000107804001001460846A0F50000B6
:10210000704701460902091201F5000070470020DE
:10211000DC49888008460068401C0860DA4800787E
:1021200080F00100D849087070470CB5D64A117884
:10213000D44A136800939288ADF80420D24A1278EA
:10214000914205D0CF4A136800939288ADF80420DD
:10215000009A0260BDF8042082800CBD37B584B0BF
:10216000054602A8FFF7E1FFBDF80C00BDF8181006
:10217000441A00200090019005990298401A00909E
:10218000002C05DA42F2107004440098401E0090C2
:10219000A0B2ADF8040000982860BDF80400A88043
:1021A00007B030BD1CB504466846FFF7BEFF009877
:1021B000A04201D200201CBD0098001BFBE71CB50B
:1021C00004466846FFF7B1FF00982060BDF80400A0
:1021D000A0801CBD2DE9FF43044625466846FFF755
:1021E000A4FF28680099884209D900982060BDF8AA
:1021F0000400A0800020014604B0BDE8F0832868F8
:10220000009988420CD1A888BDF80410884207DBE9
:1022100000982060BDF80400A08000200146EBE794
:10222000BDF80400A988461A00982968401A02904F
:10223000002E05DA42F2107006440298401E029009
:10224000B0B2ADF80C004FF00008029F42F21072DD
:1022500000203946A1FB02C908FB029207FB0028B7
:102260006746BDF80C00C71948F1000838464146DA
:10227000C2E703B5844908788249009A0A60BDF82C
:1022800004208A8080490978884205D07D49009AD7
:102290000A60BDF804208A800CBD30B503460A46AA
:1022A0001846114684888D882C4442F20F75AC4242
:1022B0000CDD04680D682C44641C046084888D88DF
:1022C0002C44A4F51C54103C848007E004680D687D
:1022D0002C44046084888D882C44848030BD1FB5D4
:1022E0002DED048B82B008990698884205D99FEDA0
:1022F000670B02B0BDEC048B1FBD0899069888429D
:1023000008D1BDF81C00BDF82410884202DB9FED07
:102310005F0BEEE7BDF82400BDF81C10441A0699C7
:102320000898401A0090002C05DA42F2107004441C
:102330000098401E0090A0B2ADF80400BDF8040063
:1023400049F0DDF941EC100BB0EE408AF0EE608A06
:102350009FED500B53EC102B51EC180B48F076FF0F
:1023600041EC100BB0EE408AF0EE608A009849F024
:10237000C6F941EC100BB0EE409AF0EE609A53ECC7
:10238000182B51EC190B48F0A5FE41EC100BB0EEE8
:10239000408AF0EE608AB0EE480AF0EE680AA8E7DC
:1023A000F3B582B06846FFF7C0FEBDF80440BDF843
:1023B0000C00241A0A2094FBF0F40026009D0298D9
:1023C0002D1A66F100064FF47A7200272946A1FB08
:1023D000020C06FB02C205FB072605462D1946EB3B
:1023E000E4762846314604B0F0BD70B502460B468F
:1023F000002100241D46002D01DC002070BD12E0EC
:1024000012F8010B414008240BE011F0800F04D0BA
:10241000072080EA4100C1B201E04806010E601EBB
:10242000C4B2002CF1DC2800A5F10106B5B2E7D159
:102430000846E3E77FB506460C4602A8FFF775FE9F
:10244000BDF80C00A188451A002000900190029868
:102450002168401A0090002D05DA42F21070054400
:102460000098401E0090A8B2ADF8040002982060C9
:10247000BDF80C00A08000983060BDF80400B0806A
:102480007FBD0000540000105A0000100000000042
:1024900000000000000000000088C34030B5034683
:1024A000E0480068C82801DB002030BDDD48008816
:1024B000401CDC4C246804EB4404DB4D25F834005C
:1024C000D848006800EB40002C4604EBC000436095
:1024D000D448006800EB400004EBC0008160D148A4
:1024E000006800EB400004EBC000C2600020CD4C4F
:1024F000246804EB440405EBC4042061C94C24683F
:1025000004EB440405EBC4046061C6480068401C49
:10251000C44C20602046008880B2C6E710B5024651
:10252000012A04DBBF480068401C824201DD002014
:1025300010BD501E00EB4000BB4B03EBC000C16060
:102540000023501E00EB4000B74C04EBC0000361B9
:10255000501E00EB400004EBC00043610120E7E7A0
:10256000012804DBAF490968491C884200DD704737
:102570000022411E01EB4101AB4B03EBC1010A619B
:10258000411E01EB410103EBC1014A6100BFEEE7CF
:102590000146012904DBA3480068401C814201DD9B
:1025A00000207047481E00EB40009F4A02EBC0002D
:1025B0004269481E00EB40009B4B03EBC000C06823
:1025C000824201D30120ECE70020EAE7014601291D
:1025D00004DB94480068401C814201DD0020704704
:1025E000481E00EB4000904A02EBC000406908B969
:1025F0000120F4E70020F2E70146012904DB8948C5
:102600000068401C814202DD4FF0FF307047481ED9
:1026100000EB4000844A02EBC0004069F6E72DE978
:10262000F04105468846012D04DB7E480068401CC9
:10263000854203DD4FF0FF30BDE8F081681E00EBFE
:102640004000794901EBC0042846FFF7A1FF074687
:1026500077B16069401E60612069401C206103E021
:10266000D4E90310401A2061D4E903108842F7D25C
:10267000D4E904014618E068B04201D8E068361A8F
:10268000D4E9011306FB03101A46414642F02EFE20
:102690006069401C60610120CEE72DE9F0410546EC
:1026A0000F46012D04DB5F480068401C854203DDB6
:1026B0004FF0FF30BDE8F081681E00EB40005A4942
:1026C00001EBC0042846FFF781FF064616B14FF024
:1026D000FF30EFE7D4E9010C236903FB0C016246EC
:1026E000384642F003FE6069401E60612069401C6C
:1026F000206103E0D4E90310401A2061D4E90310FB
:102700008842F7D20120D5E72DE9FF47DDE90C54D7
:10271000019800680719DDF800800198006880447E
:102720000398B84205D922464146284642F0DEFDCC
:1027300010E0019903980968461A32464146284636
:1027400042F0D4FDA946B144A21B4846009942F08C
:10275000CDFD00BF02980068001B02990860039835
:10276000B7FBF0F100FB117001990860BDE8FF872D
:102770002DE9FF47DDE90C540198006802990968CA
:1027800008440399B0FBF1F201FB1206DDF800806A
:10279000B04430190399884205D222462946404662
:1027A00042F0A4FD0EE00398871B3A4629464046B6
:1027B00042F09CFDA946B944E21B4946009842F00C
:1027C00095FD00BF02980068204402990860BDE8AA
:1027D000FF872DE9F04105460F46012D04DB114826
:1027E0000068401C854203DD4FF0FF30BDE8F081FA
:1027F000681E00EB40000C4901EBC0042846FFF7BF
:10280000E5FE064616B14FF0FF30EFE7D4E9010CC4
:10281000236903FB0C016246384642F067FD012044
:10282000E4E7000000010010280700A070B50B4687
:10283000D90803F007042AB1455C0126A6403543B8
:10284000455404E0455C0126A640B543455470BD9F
:1028500010B50246CB0801F00704D05C204110F00F
:10286000010F01D0012010BD0020FCE7094880477E
:1028700009480047FEE7FEE7FEE7FEE7FEE7FEE762
:10288000FEE7FEE7FEE7FEE704480549054A064B7A
:1028900070470000852B0200E500020070820010E6
:1028A000C0CA001070860010C0AA001030B5EB48F6
:1028B000006810F4807F6BD1E948006810F0010FC8
:1028C0002CD1E648006810F01F0F01D1002006E06F
:1028D000E248006800F01F00E249B1FBF0F0E24975
:1028E0000860E248006810F01F0F01D1002006E0E8
:1028F000DE48006800F01F00DA49B1FBF0F0DC4967
:102900000860DC48006800F0010000F10100D649D1
:102910000968B1FBF0F0D8490860B6E0D748006814
:1029200010F0400F07D10020CF490860D04908605F
:10293000D1490860A9E0C948006810F01F0F01D113
:10294000002006E0C548006800F01F00C549B1FB43
:10295000F0F0C5490860C548006810F01F0F01D1AC
:10296000002006E0C148006800F01F00BD49B1FB2F
:10297000F0F0BF490860BF48006800F0010000F1B6
:102980000100B9490968B1FBF0F0BB4908607CE07F
:10299000BB48006810F4807F07D10020B24908606E
:1029A000B3490860B44908606FE0AD48006810F0B2
:1029B000010F2ED1B24C246804F01F0404F1010071
:1029C000B04CD4F8044104F01F01A84C246804F072
:1029D0001F02AC4CD4F8004104F0010404F10103DF
:1029E00009B9002403E09F4C4443B4FBF1F49E4D2D
:1029F0002C600AB9002403E09A4C4443B4FBF2F47F
:102A00009B4D2C60984C2468B4FBF3F49A4D2C60D9
:102A10003BE09A48006810F0400F07D1002092492F
:102A2000086093490860944908602EE0944C24683B
:102A300004F01F0404F10100924CD4F8044104F0A6
:102A40001F018A4C246804F01F028E4CD4F8004108
:102A500004F0010404F1010309B9002403E0814CEE
:102A60004443B4FBF1F4804D2C600AB9002403E028
:102A70007C4C4443B4FBF2F47D4D2C607A4C2468CA
:102A8000B4FBF3F47C4D2C6000BF7F48006810F469
:102A9000807F31D07C48006810F01F0004D00428EB
:102AA00006D0062823D104E000207849086022E0FF
:102AB00000BF734A126802F01F0202F10100714A5E
:102AC000D2F8082102F01F01654A126812F0010FC6
:102AD00006D0644A4243B2FBF1F26C4B1A6005E047
:102AE000604A4243B2FBF1F2684B1A6003E00020F7
:102AF0006649086000BF24E06348006810F4007F66
:102B00001CD05748006810F0010F0BD060480068D7
:102B100000F01F0000F10100524900FB01F05B4989
:102B200008600EE05648006800F01F0000F1010048
:102B30004C4900FB01F05549086002E00020534970
:102B4000086030BD3EB55348534B191D00221C6828
:102B500001940C680094514D019CAC4206D1009C3C
:102B6000A4F18855113D01D1012400E00024224642
:102B70003AB104680294029C44F470040294029CEA
:102B800004603EBD00B5FFF7DDFF21203B49086032
:102B900000BF3A48006810F0400FFAD001203049D9
:102BA00008604FF009003749C1F884004FF0010078
:102BB0003B4908604FF0AA003A4908604FF05500C1
:102BC000086000BF2E48006810F4806FFAD0232000
:102BD000354908604FF001002A49C1F8A0004FF0C4
:102BE000AA00324908604FF055002649C1F8AC00F0
:102BF00000BF2748006810F4806FFAD040F201103F
:102C00001649086040F201201E49C1F808014FF042
:102C100001001849086040F20220254908604FF081
:102C20000200124908602348234908604FF480706D
:102C30001449C1F8C8010846D0F8B00140F00300BB
:102C40001E49086045F23A000E4908604FF4003012
:102C50001B490860FFF72AFE00BD000004C10F40B9
:102C60000CC10F40001BB70020010010A8C10F408D
:102C70002401001000C10F4028010010A0C10F4026
:102C800088C00F4000C00F4008C10F402C01001049
:102C9000A8C00F4088ED00E040EF00E021001110D7
:102CA00080C00F408CC00F40A4C00F40ACC00F408C
:102CB000B4C10F40DE872804C4C00F40B0C10F402C
:102CC00008ED00E010B5002231B1012906D002293B
:102CD00006D0032909D105E0F74A08E0F74A06E0E3
:102CE000F74A04E0F64A121F01E0F54A00BF00BFB0
:102CF00070B90023F34C2361A360012323602346B2
:102D00005A6100232360CF232361EF4B19700FE03A
:102D100001280DD10023ED4C2361A3600123236022
:102D200023465A6100232360CF232361E84B1970A7
:102D300010BD10B502461AB1012A01D0022010BD03
:102D40000AB9E04800E0E14801468B6813F0010F42
:102D500023D0486ADF4C2060086A6060886AA060FF
:102D6000CC6ADC48C4604068C00FDB4C6071D94855
:102D70004068C0F303402071D6488068A060D54801
:102D8000C468D548C460D3480068D34C2060012093
:102D9000E071042048600120D1E753F0400002D1E7
:102DA00053F0800003D0042048600220C7E70420CD
:102DB00048600220C3E7F0B5A9B0044624B1012C55
:102DC00002D0032029B0F0BD00252046FFF7B1FF57
:102DD0000546012D7ED1C0480068CDF84F00BE49A0
:102DE000D1E90201CDE9160148F2E9006043BB498F
:102DF00001EBC000BA49405840F6B731884203D9C8
:102E00000120B8490880DDE74422B3490C31684607
:102E100042F0B1FAB0480EC8204612F05EFA08B18E
:102E20000220CFE700208DF84A0048F2E900604315
:102E3000AA4901EBC000AA494058A0F53061B83951
:102E400001D1012000E00020064646B348F2E90027
:102E50006043A24901EBC000A1494058401E48F21E
:102E6000E90161439D4A02EBC1019D4A885048F245
:102E7000E9006043994901EBC000111F4058401C14
:102E800040F6B831B0FBF1F201FB120148F2E90063
:102E90006043924A02EBC000914A121F815048F2EF
:102EA000E90060438D4901EBC0008D49091F41587D
:102EB00048F2E9006043894A02EBC000884A805822
:102EC000084440F6B831B0FBF1F201FB120000EB10
:102ED000400100E04AE001EBC00148F2E900604334
:102EE0007E4A02EBC00000EBC107582212A9384607
:102EF00042F041FA48F2E9006043784901EBC00032
:102F000077494058401C48F2E9016143734A02EB9B
:102F1000C101734A885074480068401C72490860B7
:102F200002207049088048F2E90060436B4901EBD8
:102F3000C0001146405840F2DC51884203D90420B9
:102F4000684908800FE048F2E9006043634901EBFB
:102F5000C0006349405840F6B731884203D9012088
:102F6000604908802EE75F4800782BE7032029E7B7
:102F7000F0B503460C461BB1012B01D0A220F0BDD9
:102F800000250BB94F4800E05048014657480078EB
:102F900008B9A220F3E70020DFF850C18CF8000048
:102FA0005348D2F806C0C0F808C0D2F80AC0C0F82A
:102FB0000CC016795779300440EAC770DFF830C189
:102FC000CCF800005079012805D1106820F060404D
:102FD000CCF8040006E01088C0F30A00DFF810C146
:102FE000CCF80400012C14D141480068DFF804C17A
:102FF00000EA0C0008633E48406848633C4880682B
:1030000088633B48C068C863486840F02100486056
:103010002DE0022C14D136480068DFF8D8C000EA51
:103020000C0008643248406848643148806888640D
:103030002F48C068C864486840F04100486016E006
:10304000042C12D12A480068DFF8A8C000EA0C005E
:103050000865274840684865254880688865244891
:10306000C068C8658120486001E0A22087E7CD697B
:103070002148054205D0486840F008004860A22079
:103080007DE7A0207BE770B5014619B1012901D089
:10309000A32070BD0022002309B90A4800E00B48B4
:1030A0000546EA6912F00C0F3BD00020134E308029
:1030B00001200E4E30702DE03B0085000E008D008B
:1030C00007008C0000400440000400A00080044081
:1030D000010400A070001AA080FF19A090F80BA0B6
:1030E0004407040068010010640100106C01001026
:1030F000D0FF19A000000FC0020202006E010010F4
:103100005B1C12F00C0F01D0012407E0FF2B01D94A
:10311000A320BEE7FE4800780028F1D100BF20467A
:10312000B7E7FC480088401CFA4E308030460088E3
:10313000B0F5FA7F01DAA120ABE70020F54E308030
:10314000A320A6E72DE9F0419AB004462CB1012C4A
:1031500003D000201AB0BDE8F081002648F2E90053
:103160006043ED4901EBC000EC49405800287DD098
:103170002046FFF788FF0546A12D02D0A32D0DD1D3
:1031800003E0A120E64908708DE0E6480068401C95
:10319000E4490860A320E249087084E048F2E900AD
:1031A0006043DD4901EBC000DC49405808B1012013
:1031B00000E000200646EEB348F2E9006043D64A3C
:1031C00002EBC00248F2E9006043D34B03EBC000BE
:1031D000D24B1B1FC05800EB400303EBC00002EBB7
:1031E000C001582204A842F0C6F848F2E900604342
:1031F000C94901EBC000C9494058401E48F2E901E5
:103200006143C54A02EBC101C44A885048F2E90053
:103210006043C14901EBC000111F4058401C40F6FB
:10322000B831B0FBF1F201FB120148F2E900604352
:10323000B94A00E004E002EBC000B84A121F815016
:1032400046B3DDF8170000900898CDF806000998FD
:10325000CDF80A009DF810008DF805009DF81100CA
:103260008DF804006A462946204600E01CE0FFF77E
:103270007FFE8046B8F1A00F03D1A020A8490870B6
:1032800007E0A220A6490870A6480068401CA5498E
:10329000086007E0A420A2490870A2480068401C0A
:1032A000A049086000BF00E00027384652E770B52B
:1032B0009D48007818B99D48007800B970BD9A48BB
:1032C0000078002847D09A48C0689A4908600024CE
:1032D0003FE09848006800B93DE00120A0409549D2
:1032E000096800EA0105202D1BD008DC012D13D050
:1032F000022D0CD0042D13D0082D26D119E0402D1D
:1033000016D0802D0ED0B5F5007F1ED100E000BF95
:103310000020FFF717FF19E00020FFF74CFD15E034
:1033200000BF00BF844801780020FFF7CBFC0DE010
:103330000CE07F48406840F008007D4948607F48C5
:103340000068401C7D49086000E000BF00BF601CB1
:10335000C4B20A2CBDDB7548007800284ED07848EE
:10336000C06878490860002446E07648006800B9E3
:1033700044E00120A0407349096800EA0105202DBE
:103380001BD008DC012D13D0022D0CD0042D13D03E
:10339000082D2DD125E0402D22D0802D0ED0B5F561
:1033A000007F25D100E000BF0120FFF7CBFE20E029
:1033B0000120FFF700FD1CE000BF00BF624800785D
:1033C00040B16248407850B16048C1780120FFF7B1
:1033D00079FC04E05E4801780120FFF773FC08E007
:1033E00007E05748406840F008005549486000E051
:1033F00000BF00BF601CC4B20A2CB6DB00BF5DE793
:1034000010B5002231B1012906D0022906D00329C6
:1034100009D105E04F4A08E04F4A06E04F4A04E070
:103420004E4A121F01E04D4A00BF00BF60B90123A0
:103430003F4C236000232361A36023465A6100238D
:1034400023603D4B19700DE001280BD101233C4C4A
:10345000236000232361A36023465A610023236075
:103460003B4B197010BD014609B9314A00E0344A9E
:103470001046012202600022026342638263C2633B
:10348000026442648264C26442600265426582658D
:10349000C265026242628262C2620260704730B5F7
:1034A00004460D4614B1012C00D030BD14B1012CDE
:1034B0006BD11DE02A48006840F400502949C1F84A
:1034C000C4002948006840F0010027490860084608
:1034D000406840F0010048604FF00000FFF7C3FF74
:1034E00029460020FFF78CFF01200F4908704DE0AE
:1034F0001B48006840F480401A49C1F8C4001A48CB
:10350000006940F0020018490861084640692DE052
:103510006C0100106E01001000EA03A044070400D3
:103520006001001034010010300100103101001062
:103530000040044058010010000400A0040400A052
:10354000008004405C010010D20400A018CD72A0DD
:10355000010400A03B0085000E008D0007008C00D8
:10356000C4C00F4000C00F4000C0024040F0020045
:1035700048614FF00100FFF776FF29460120FFF771
:103580003FFF0120FE49087000E000BF00BF00BF00
:103590008BE72DE9F0479AB0044688462CB1012C00
:1035A00003D003201AB0BDE8F087002619200121BE
:1035B0008140F44A430942F8231000BF48F2E90071
:1035C0006043F14901EBC000F0494058A0F530617B
:1035D000B83901D1012000E000208146B9F1000F87
:1035E00028D048F2E9006043E74901EBC000E74911
:1035F0004058401E48F2E9016143E34A02EBC10131
:10360000E24A885048F2E9006043DF4901EBC0001C
:10361000111F4058401C40F6B831B0FBF1F201FBDD
:10362000120148F2E9006043D74A02EBC000D74AD2
:10363000121F815048F2E9006043D34901EBC000FA
:10364000D249091F415848F2E9006043CE4A02EBD3
:10365000C000CE4A8058084440F6B831B0FBF1F2C1
:1036600001FB120000EB400101EBC00148F2E90050
:103670006043C54A02EBC00000EBC10A5822414634
:10368000504641F078FE48F2E9006043BE4901EB44
:10369000C000BE494058401C48F2E9016143BA4AA3
:1036A00002EBC101B94A885048F2E9006043B649CB
:1036B00001EBC0001146405800287DD02046FFF79E
:1036C000E2FC05462846A12D02D0A3280DD103E037
:1036D000A120AF4908708DE0AE480068401CAD499C
:1036E0000860A320AA49087084E048F2E90060431A
:1036F000A54901EBC000A549405808B1012000E0F0
:1037000000200646EEB348F2E90060439E4A02EB11
:10371000C00248F2E90060439B4B03EBC0009B4BA7
:103720001B1FC05800EB400303EBC00002EBC001BD
:10373000582204A841F01FFE48F2E9006043924974
:1037400001EBC00091494058401E48F2E901614335
:103750008D4A02EBC1018D4A885048F2E90060436E
:10376000894901EBC000111F4058401C40F6B83198
:10377000B0FBF1F201FB120148F2E9006043824A1A
:1037800000E004E002EBC000804A121F815046B303
:103790000898CDF806000998CDF80A00DDF8170062
:1037A00000909DF810008DF805009DF811008DF82F
:1037B00004006A46294600E01EE02046FFF7D8FBD9
:1037C0008146B9F1A00F03D1A0207149087007E02C
:1037D000A2206F4908706F480068401C6D4908605E
:1037E00007E0A4206A4908706A480068401C6949DB
:1037F000086000BF00BF00E00027192001218140C0
:1038000042094FF0E02303EB8202C2F8001100BF2F
:103810003846C7E67CB5002500208DF802008DF8FB
:10382000030003208DF8000018208DF8010000240B
:1038300012E0DDE9000104F027FCDDE9000104F0FD
:1038400050FCA0402843C5B29DF80100401CC0B206
:103850008DF80100601CC4B2082CEADB28467CBD50
:1038600010B5002013E0002248F2E9014143464B25
:1038700003EBC101454B1B1FCA5048F2E90141430C
:10388000414B03EBC101414BCA50411CC8B2022855
:10389000E9DB002040490880404908803D49086034
:1038A0003F4908603F49086048213E48083041F0E0
:1038B000BEFD002013E0002248F2E90141433A4BEB
:1038C00003EBC101314B1B1FCA5048F2E9014143D0
:1038D000354B03EBC1012D4BCA50411CC8B2032824
:1038E000E9DB00240BE040F6636161432F4A02EB01
:1038F000410041F6C64141F078FD601CC4B2102C75
:10390000F1DB10BDFCB50B46144610B1012800D008
:10391000FCBD274D2A6823F06045009524F06045E2
:1039200001954107009D0D43224E46F82250019D0E
:103930000D43561C1F4F47F826501D4D2D68AD1CDA
:103940001B4E356000BFE3E73CB510B1012800D045
:103950003CBD174C23684407C1F30A0544EA0544FB
:103960000094C2F30A0444EA40340194DDE90045BE
:103970002C43104D45F823400D4C2468641C1BE07B
:103980003101001080E100E000EA03A044070400D8
:1039900060010010340100106A0100106E01001077
:1039A0006401001070001AA090F80BA0680E18A017
:1039B0003801001000800340984D2C6000BFC7E71D
:1039C00010B5FFF727FF401CC4B2002040EA0450A6
:1039D00093490860934840EA045048604FF0805093
:1039E00040EA04508860904840EA04518C48C16025
:1039F0004FF07F608A4908616FF0704188484161EB
:103A00008A48874988616FF060418548C16110BD6F
:103A100010B5FFF7D5FF0020804908600846006810
:103A20008349486008464068886040F2FF72002180
:103A30000120FFF789FF7E488068784909680844BB
:103A400080007B49C8600846C068086174484268C5
:103A500001680020FFF756FF7148426901690020A4
:103A6000FFF750FF6E48C26881680020FFF74AFFE9
:103A70006B48C26981690020FFF744FF6FF0604224
:103A800000210120FFF73EFF69484069634909684A
:103A900000EB81006649486110BD10B50446C4B111
:103AA000012C04D0022C11D0042C1BD112E0604850
:103AB000046001205F4908600020086188600120DF
:103AC0005D4908600020086188600CE05848046087
:103AD00009E000BF012056490860FFF799FF5448EC
:103AE000046000E000BF00BF10BD10B5022100203F
:103AF000FFF7D5FC02210120FFF7D1FC0220FFF7E0
:103B0000CCFF0B21192000F071F9CF204949086141
:103B10004949086100214FF47A7000F072FFFFF705
:103B20009FFE10BD30B599B044480068CDF80F0035
:103B300048224249083106A841F01DFC404800686F
:103B400040F6B731884202D9012019B030BD3B4858
:103B5000006801909DF8050000F00F00022804D1D4
:103B6000364911F08CF90220EFE700208DF80A00A9
:103B700033480068A0F53061B83901D1012000E078
:103B80000020044684B12E480068401E2C4908607D
:103B9000081F0068401C40F6B831B0FBF1F201FB91
:103BA00012002749091F08602548001F00682449A2
:103BB0000968084440F6B831B0FBF1F201FB12008D
:103BC00000EB400101EBC0001E4901EBC00558228B
:103BD00002A9284641F0CFFB19480068401C18494B
:103BE00008600846006840F2DC51884201D9042090
:103BF000ABE71348006840F6B731884201D901208D
:103C0000A3E700BF0220A0E70F48007810B90F48D3
:103C1000007808B1012070470020FCE7380100104F
:103C2000C0001AA0FFFF0700FFFF07100000F01FF1
:103C300000C00340004004400080044020001AA05F
:103C4000640E18A0200714A03001001031010010EC
:103C500010B5464B202404FB003201238B409361B6
:103C600010BD10B5414B202404FB003201238B40D2
:103C7000D36110BD30B5024600233C48202505FB2A
:103C800002046369CB4003F0010030BDF0B5144677
:103C90001D46062807DC202905DCB12C03DC05289D
:103CA00002DB042900DDF0BD34B1012C05D0022C6B
:103CB00004D00A2C35D133E000BF00BF2C4E06EBF8
:103CC000C01656F8216026F00706294F07EBC017EB
:103CD00047F82160264E06EBC01656F8216026F400
:103CE0008066234F07EBC01747F821601F4E20273F
:103CF00007FB0062012C0DD1166801278F403E435F
:103D000016601DB101268E40966108E001268E40A6
:103D1000D66104E0166801278F40BE43166022E09A
:103D200021E0002300BF1AE0C0EBC006114F07EBF3
:103D30004616C1EBC1073E44F65CA6420DD15E1C9F
:103D40000B4F07EBC01757F8217066F30207084EB8
:103D500006EBC01646F8217003E05E1CF3B2072B99
:103D6000E2DD00BF00BF00BF00BF9CE7008009206C
:103D700000C00240A8C1060010B5002807DACA0634
:103D8000140E3F4A00F00F031B1FD45403E0CA0671
:103D9000130E3C4A135410BD10B5002400BF04E0BC
:103DA0001F2160B2FFF7E8FF641C282CF8D900241B
:103DB00004E00020344941F82400641C032CF8D3AB
:103DC000072002462E4B0C3B19684FF6FF031940A3
:103DD0002E4B0B4343EA0221294B0C3B196000BFD9
:103DE00000202B4908602B49086010BD70B50446BF
:103DF0000D4629462046FFF7BFFF00BF04F01F0114
:103E00000120884061094FF0E02202EB8101C1F8F6
:103E1000000100BF012070BD4FF0E022D2F8002168
:103E200002601D4A126822F07E420A606FF400327E
:103E30001A4B1A606FF07E43194A1360144A1268D5
:103E400002F10102124B1A6070476FF40032134BFB
:103E50001A606FF07E43134AC2F884304FF0E022BC
:103E6000C2F8000121F07E424FF0E023C3F80421A4
:103E7000084A126802F10102064B1A6070470000FE
:103E800018ED00E000E400E0F01E00100000FA056C
:103E9000880100108C01001004E100E080E100E0E6
:103EA00084E100E000E100E010B56D48007840F0EA
:103EB00001006B490870FDF77CFE10BD6848007A70
:103EC00020F00200801C664908720846007AC0F3A0
:103ED0004000C043097A60F34101614801720078F3
:103EE00040F001005E490870704710B55D480068F9
:103EF00020F4007000F500705B49C1F8C4004FF079
:103F000000005749087408730846007A20F0020040
:103F100000F1020008724FF00000087208700846B5
:103F200090F8200020F03F0081F82000084690F82B
:103F3000240020F03F0081F82400084690F8280073
:103F400020F01F0081F828000846808E6FF30800DB
:103F500088860846808F6FF30B0000F2DD7088873B
:103F60000846007820F0010000F1010008700846C2
:103F7000007B20F0010000F1010008730846007A80
:103F800020F0100000F1100008720846006C6FF37A
:103F9000100008640846006C20F4003008644FF0FC
:103FA00000014FF01100FFF721FF00202F490860AA
:103FB000FFF784FF10BD00B52948007A20F0020009
:103FC000801C27490872002008720846007A20F0F9
:103FD0000100401C08720846007820F00100401CD7
:103FE00008700846007A20F0100010300872084669
:103FF000006C6FF3100008640846006C20F4003079
:104000000864002019490860FFF758FF00BD00B59B
:10401000112001218140164A430942F8231000BFB4
:104020000F48007A20F001000D490872FFF746FFA3
:1040300000BD00B5FFF742FF0948007A20F00100FB
:10404000401C0749087211200121814042094FF0AC
:10405000E02303EB8202C2F8001100BF00BD0000A4
:1040600000400240C4C00F4000C00F40A801001033
:1040700080E100E0F0B5044600210025B94B00BF07
:1040800008E0FF2091FBF0F600FB161018705B1C97
:10409000481C81B2C829F4DB2246002106E001F168
:1040A0000A00C0B21060121D481C81B2C829F6DB9C
:1040B000AC4B00210CE0FF2091FBF0F600FB16104A
:1040C0001E78B04201D0681C85B25B1C481C81B2CE
:1040D000C829F0DB224600210EE001F10A00FF268C
:1040E00090FBF6F706FB17001668B04201D0681C7B
:1040F00085B2121D481C81B2C829EEDB012D08DDF6
:1041000000219948008840F40040974E30800020FC
:10411000F0BD0120FCE72DE9F04188B0934B0FCBB7
:1041200004AC0FC4914B1033D3E901021968DB686A
:1041300001AC0DC400916E4604AE002400258C48ED
:10414000006840F400608B49C1F8C40041F21000DF
:10415000894908604FF00100884908604FF000006D
:1041600088608748D0F8380140F001008449C1F8E0
:1041700038010846D0F8400140F00100C1F8400184
:104180000846D0F8440140F00100C1F84401084657
:10419000D0F8480140F00100C1F848010846D0F8C5
:1041A0004C0140F00100C1F84C010846D0F8500124
:1041B00040F00100C1F850010846D0F8540140F029
:1041C0000100C1F854010846D0F8600140F0010038
:1041D000C1F860010846D0F8640140F00100C1F860
:1041E00064010846D0F8700140F00100C1F8700188
:1041F0000846D0F8740140F0010062490860624D41
:1042000000BF05E0286840F0010028602D1D641CF7
:10421000102CF7D35C4D8035002405E0286840F071
:10422000010028602D1D641C182CF7D35748006826
:1042300040F001005249C1F860020846D0F864021B
:1042400040F00100C1F864020846D0F8780240F05E
:104250000100C1F878020846D0F87C0240F0010065
:104260004B4908604FF081004A4908604FF0000157
:104270004FF00A0000F0C5FB81204049C1F8200240
:1042800000210A2000F0BDFB002140F6B83000F00C
:10429000B8FB02203949086303204863072088637C
:1042A0000220C86305200864012048640520886452
:1042B000C86407200865012048650220886503203E
:1042C00088650120886240F2033033490860A1F11B
:1042D0000401306808604FF08000304908604FF0FA
:1042E00000012F4800F08DFB40F283102349086243
:1042F00000212C4800F085FB40F203101F490862A2
:1043000002204862002400E0641C402CFCD31C20E6
:104310001A4948628320086231793320884040F08E
:10432000204004680020154908621F48006840F4D6
:104330000020C1F800014FF0000142F6E06000F0FB
:1043400060FBB068FFF796FE4FF02047D6F80C8070
:104350004146384641F06BF808201449086008B01F
:10436000BDE8F081008000A040060010CCC7060028
:10437000C4C00F4000C00F40DCC10F4000C0092086
:1043800000C0024074C1024080C1024060C20240CD
:104390007CC2024000C2092004C1092020C10920BA
:1043A000C0270900C0D4010000C109202CC2092087
:1043B00010B50278C1EBC103FC4CE2544278C1EB6A
:1043C000C10323445A708278C1EBC10323449A701D
:1043D000C278C1EBC1032344DA700279C1EBC10397
:1043E00023441A714279C1EBC10323445A71827983
:1043F000C1EBC10323449A7110BD10B501460022E0
:10440000002011B1012916D10AE0E948E94B1B68E7
:1044100023F4001303F50013E74CC4F8C4300BE099
:10442000E648E44B1B6823F4806303F58063E24CA9
:10443000C4F8C43000E010BD00BFC1EBC103DB4CC9
:1044400023445B783C2494FBF3F3DAB202F00103DB
:10445000002B01DD531CDAB2022A05DA036923F0CE
:10446000FF039B1C03610BE03C2A05DB036923F07F
:10447000FF033C33036103E0036962F30703036155
:10448000C1EBC103C94C2344DB782BB1036823F093
:1044900080038033036003E0036823F0800303603C
:1044A000C1EBC103C14C23449B782BB1036823F0BB
:1044B00040034033036003E0036823F040030360DC
:1044C000C1EBC103B94C23445B79042B05DC0368C1
:1044D00023F00F03DB1C036015E0C1EBC103B34CF9
:1044E00023445B79102B09DCC1EBC10323445B79C6
:1044F0005B1E046863F30304046004E0036823F0B4
:104500000F030F330360036823F030030360C1EB34
:10451000C103A64C23441B7923B1436823F0040351
:10452000436004E0436823F004031B1D43604368B9
:1045300023F002039B1C436000BF7CE70146C1EBF4
:10454000C1009A4A105C7047F0B504460A4600253F
:1045500000262B4600210AB9954902E0012A00D124
:104560009649002309E0088985B218465B1C41F68C
:10457000FF77B84201D30020F0BD087B10F0040F94
:10458000F1D1002307E018465B1C41F6FF77B842E3
:1045900001D30020F0E7087B00F012000228F2D1DE
:1045A0008C60002307E018465B1C41F6FF77B84299
:1045B00001D30020E0E7087B00F014000428F2D1CA
:1045C000088986B23046D7E7F0B503460024322981
:1045D00000DDF0BD00200CE01D8802EBC20606EBFA
:1045E0000216774F07EB860626F810509B1C451CD9
:1045F000A8B28842F0DB0AB96D4C04E0012A01D16F
:104600006E4C00E0E5E700200BE002EBC20505EB95
:1046100002156B4E06EB850535F81050A560451C5C
:10462000A8B28842F1DB00BFD3E770B5002332287F
:1046300000DD70BD09B95E4B04E0012901D15F4B7B
:1046400000E0F6E700220AE01C8901EBC10505EB5A
:1046500001155C4E06EB850525F81240521C82427E
:10466000F2DB00BFE5E7F0B502460C46002300256B
:1046700001260CB90020F0BD0AB94D4902E0012A1B
:1046800000D14E49002331E0002507E028466D1C8B
:1046900041F6FF77B84201D30020ECE7087B10F029
:1046A000020FF3D002EBC20000EB0210444F07EB05
:1046B000800030F813008860002507E028466D1C54
:1046C00041F6FF77B84201D30020D4E7087B10F011
:1046D000100FF3D1088902EBC20707EB0217DFF8CE
:1046E000E4C00CEB870727F813005B1CA342CBD375
:1046F0003046C0E72DE9F04303460C460026354618
:1047000000211F46322C01DDBDE8F083002010E0BF
:10471000B3F800C002EBC20808EB0218DFF8A09063
:1047200009EB880828F810C09B1C00F1010C1FFA47
:104730008CF0A042ECDB0AB91D4904E0012A01D14A
:104740001E4900E0E0E700205EE000250AE0B1F845
:1047500008C01FFA8CF6AC466D1C41F6FF78C445C4
:1047600000D3D1E791F80CC01CF0040FEFD1002565
:1047700006E0AC466D1C41F6FF78C44500D3C3E7A4
:1047800091F80CC00CF0120CBCF1020FF1D102EB4D
:10479000C20C0CEB021CDFF8288008EB8C0C3CF8F8
:1047A00010C0C1F808C0002515E00000FC1E001074
:1047B00000800840C4C00F4000C00F40000003400C
:1047C000121F00103E200010AC466D1C41F6FF7811
:1047D000C44500D398E791F80CC00CF0140CBCF160
:1047E000040FF1D1B1F808C002EBC20808EB0218BF
:1047F000DFF8849009EB880828F810C09B1CBF1CC8
:1048000000F1010C1FFA8CF0A0429EDB00BF7BE799
:1048100010B500221146002308B9184B02E0012808
:1048200000D1174B002103E01C89A2B24C1CA1B29D
:104830000829F9DB10BD30B505460C462846FFF7C0
:104840007DFE2178884216D029462046FFF7B0FD2C
:10485000C5EBC5000B49084421680160A18881802F
:10486000A17981712846FFF7C8FD002001E0411CB5
:1048700088B20A28FBDB30BD3E20001000800840D3
:1048800000000340FC1E001010B501204FF0402135
:104890000860FCF787FF4FF0402080684FF0402110
:1048A0008969884203D900204FF04021886010BDFB
:1048B00010B50120A2490860A248006810B1A148C3
:1048C0000068804710BD10B501209F49086046F080
:1048D0001FFA10BD10B501209C4908606FF07F40A1
:1048E00088613FF00FF89A48006810B19848006856
:1048F00080479648806895498969884202D9002096
:104900009249886010BD2DE9F04106460C4600270B
:10491000032C1FDC8F4800688F4951F8241040EAAF
:1049200001008E49C1F8C4008D4850F834504FF052
:104930000000A8602861E860AE614FF00300686184
:1049400004F1060104F1010250B2FFF74FFA00B979
:10495000012700BF3846BDE8F0810146804A52F881
:104960003100426822F00202921C4260426822F04A
:1049700002024260704730B101280DD0022812D0E7
:1049800003281ED116E04FF04021496821F00101B3
:104990004FF04022516015E06949496821F001015A
:1049A000674A51600EE06849496821F00101664A92
:1049B000516007E06549496821F00101634A51608F
:1049C00000E000BF00BF704710B5022803DA820381
:1049D00002F140210BE0024600EBD2746410A0EB20
:1049E0004403594A4FF4804404FB032100BF4A6842
:1049F00022F00102521C4A604A6822F002024A6018
:104A000010BD30B502460B460020002100240846A8
:104A100063B108E0002001E00146401C45F6C055A6
:104A2000A842F9D9641C9442F4D305E0002001E0C7
:104A30000146401C9042FBD930BD10B52DED048BD2
:104A4000B0EE409A19EE100A47F0E4F941EC100B71
:104A5000B0EE408AF0EE608A9FED420B53EC102BD3
:104A600051EC180B46F0E0FE41EC100BB0EE408A22
:104A7000F0EE608A9FED3D0B53EC102B51EC180BC0
:104A800046F0D2FE41EC100BB0EE408AF0EE608AA8
:104A90009FED380B53EC102B51EC180B47F0D0F86E
:104AA00041EC100BB0EE408AF0EE608A51EC180B2E
:104AB00046F090FD04462046BDEC048B10BD10B5B9
:104AC0002DED048BB0EE409A19EE100A47F0A2F9D2
:104AD00041EC100BB0EE408AF0EE608A9FED210BA6
:104AE00053EC102B51EC180B46F09EFE41EC100BD2
:104AF000B0EE408AF0EE608A9FED1E0B53EC102B57
:104B000051EC180B47F09CF841EC100BB0EE408ACA
:104B1000F0EE608A51EC180B46F05CFD044620462E
:104B2000BDEC048B10BD094988610021074AD160A2
:104B300070473B21054AD1601146886170470000EB
:104B400000800040D00100100000094000400940F2
:104B5000D4010010C4C00F4010C8060000C00F40B0
:104B6000F0C706000000000000408F400000000079
:104B700000004E40000000000000F03FAA20410766
:104B8000087255200872704710B501210520FFF703
:104B900038FF4FF08040007820F00100401C4FF0BB
:104BA00080410870FFF7EAFF4FF08040007820F066
:104BB00004004FF08041087010BD00B52B494FF044
:104BC0008040406861F317004FF08041486008461C
:104BD000007820F00100401C08700846007820F0A2
:104BE0000200801C08700846007820F0040008705D
:104BF000FFF7C4FF4FF08040007820F00100401C18
:104C00004FF080410870012000BD4FF080400078D7
:104C100010F0010F0FD0AA20410708724007C068AA
:104C200000F07F40C8600846406800F07F40486060
:104C30005520087218E04FF08040406800F07F4037
:104C4000401C4FF0804148600846007820F0010089
:104C5000401C08700846007820F00200801C087094
:104C6000AA2008725520087270470000B0710B002E
:104C700070B504460CB9FE4D08E0012C01D1FD4D84
:104C800004E0022C01D1FC4D00E070BD6868C6B2A2
:104C900016F0070F7ED1F0100C287BD2DFE800F071
:104CA000060B24548390FD7AFCFBFAF9142028604B
:104CB0000820A861A5E104EB8400F04911F8300058
:104CC000A8602820A861022004EB8401EB4A02EBD3
:104CD000C10181F8260004EB840102EBC10101F15E
:104CE0001400FDF76CFA8CE1C4EBC40000EB042067
:104CF000E34901EB80004078022808D104EB8400EE
:104D0000DE4911F8300040F00100A8600FE0C4EB6C
:104D1000C40000EB0420DA4901EB80004078012850
:104D200005D104EB8400D54911F83000A86020209B
:104D3000A8610820A861022004EB8401CF4A02EB9D
:104D4000C10181F826005CE104EB8400CB4901EB52
:104D5000C0004078002819DD04EB8400C94901EB4C
:104D600080000A3004EB8401C44A02EBC101897857
:104D7000405CA86004EB8400114601EBC000807821
:104D8000401C04EB840102EBC1018870042004EB99
:104D9000840100E032E1B94A02EBC10181F826004A
:104DA0000820A8612DE1052004EB8401B34A02EB41
:104DB000C10181F82600102028600820A86120E1A8
:104DC00004EB8400AD4901EBC000807804EB840162
:104DD000AA4A02EBC1014978884219DA04EB84003F
:104DE000A84901EB80000A3004EB840102EBC10109
:104DF0008978405CA86004EB8400114601EBC00098
:104E00008078401C04EB840102EBC10188706EE0E5
:104E1000C4EBC40000EB0420994901EB800040780A
:104E200002280AD124202860012004EB8401934A3F
:104E300002EBC10181F8260059E0C4EBC40000EB8D
:104E400004208F4901EB8000407801284FD1C4EB4A
:104E5000C40000EB042001EB8000406904EB8401F6
:104E6000884A02EB81010989884230D2C4EBC40030
:104E700000EB0420824901EB80001C30C4EBC4012C
:104E800001EB04217E4A02EB81014969405CA86084
:104E900004E0A0E044E03EE031E02BE0C4EBC400DD
:104EA00000EB0420114601EB80004069401CC4EB7C
:104EB000C40101EB042102EB81014861042004EBF1
:104EC00084016E4A02EBC10181F826000FE0102038
:104ED0002860062004EB8401684A02EBC10181F8D6
:104EE0002600002004EB840102EBC101C8700820F9
:104EF000A86186E0102028600820A86181E00420D5
:104F000004EB84015D4A02EBC10181F826002860B0
:104F10000820A86175E0102028600820A86170E0D2
:104F2000C4EBC40000EB0420554901EB800040783D
:104F300002284BD1A868C1B2C4EBC40000EB042026
:104F40004F4A02EB80001C30C4EBC40202EB042287
:104F50004B4B03EB820252698154C4EBC40000EB5B
:104F60000420194601EB80004069401CC4EBC401D9
:104F700001EB04211A4602EB81014861C4EBC40035
:104F800000EB0420114601EB8000406904EB840132
:104F90003C4A02EB81010989884209D2042004EBD2
:104FA0008401364A02EBC10181F8260028600AE03C
:104FB0000420A86104EB8401304A02EBC10101F135
:104FC0000E00FDF7FCF80820A86103E0102028601F
:104FD0000820A86115E0062004EB8401274A02EBB3
:104FE000C10181F82600002004EB840102EBC1011D
:104FF000C870102028600820A86102E00820A8617D
:1050000000BF00BF00BF40E610B50120FFF730FE33
:1050100010BD10B50020FFF72BFE10BD10B502200B
:10502000FFF726FE10BD00211748C0F8D017C0F8C2
:10503000D41700201549088000BF4DE0002241F23E
:105040008D414143124B03EBC1014AF26043CA5008
:1050500041F28D4141430E4B03EBC1014AF26443DF
:10506000CA50002100EB8002064B03F8221011E029
:1050700000C0014000C0054000000A401C011AA009
:10508000DC011AA0E0001AA068FB1BA000020010BF
:10509000300E1AA0C0EBC00202EB0022FE4B03EB65
:1050A00082025161C0EBC00202EB002203EB8202DC
:1050B000917000EB8002F94B03EB8202917400EBDC
:1050C000800203EB8202117100EB8002F44B03EBD0
:1050D000C2021171411CC8B20328AFDB70470246FF
:1050E00000200BE0EF4B33F82030934204D1ED4B1E
:1050F00003EB8003997004E0431C98B2B0F5FA7F8B
:10510000F0DB7047002100EB8002E54B03EBC202AD
:10511000917000EB8001E14A02EB8101C988C0EB8C
:10512000C00202EB0022DC4B03EB8202516100EB78
:105130008001DA4A02EB8101897C491C00EB800284
:10514000D64B03EB8202917400EB80011A4602EB0E
:105150008101897C02290BDB052100EB800203F829
:105160002210002100EB800203EB8202917405E023
:10517000012100EB8002C94B03F822107047024660
:1051800000210BE0C74830F82100904204D1C54807
:1051900000EB810080787047481C81B2B1F5FA7F3E
:1051A000F0DB0420F7E72DE9F04705462C7804EB07
:1051B0008400BA4901EB80000079401C04EB8401B3
:1051C000B64A02EB8101087104EB840102EB810114
:1051D000C8890221FFF783FF002004EB8401AF4A56
:1051E00002EB8101887404EB8400114601EB80001E
:1051F00090F8038004EB840001EB8000007904EB5D
:10520000840102EB8101897888420ED1002004EBF1
:105210008401A34A02EBC101887004EB840102EB14
:10522000C10148700120BDE8F08704EB84009B4970
:1052300001EB8000017904EB8400984A02EB8000C6
:105240008078401E814210D1287EC4EBC40101EB5E
:105250000421914A02EB8101097D401A04EB84018B
:105260008E4A02EB8101C8700BE004EB84008B498D
:1052700001EB8000007C04EB8401884A02EB810191
:10528000C870D5F80920D5F80D0012EB080140F1DF
:105290000000C5F80910C5F80D00002615E0D5F886
:1052A0000990D5F80D70F200484639463FF01AFED5
:1052B000C2B204EB8400794901EB80000A30A9787E
:1052C000891B491E4254701CC6B2A878B042E6DC65
:1052D000C4EBC40000EB04206F4901EB8000808A1E
:1052E00004EB84016D4A02EB8101C88004EB840069
:1052F000114601EB8000008904EB840102EB81017F
:10530000C978084404EB840102EB81010881002084
:1053100004EB8401624A02EBC1018870A87804EBB7
:10532000840102EBC101487000207CE770B504469F
:105330000CB95D4D09E0012C01D15C4D05E0022C5A
:1053400001D15B4D01E0002070BD102028600820D5
:10535000A86104EB8401524A02EBC10101F10E0085
:10536000FCF72DFF0FE004EB84014D4A02EBC10175
:1053700001F10E00FCF72EFF0A230022181A8A41C1
:1053800001D20020E0E7286810F0100FEBD10021D7
:105390004FF47A70FFF735FB0120D5E770B504466E
:1053A0000CB9414D09E0012C01D1404D05E0022C22
:1053B00001D13F4D01E0052070BDC4EBC40000EBFE
:1053C0000420354901EB800040783A49087004EB2D
:1053D0008400334901EBC00090F8260007286DD205
:1053E000DFE800F0041A3C893D76850031480078FA
:1053F00088B1012004EB8401294A02EBC10181F844
:1054000026002020286004EB840102EBC10101F199
:105410000800FCF7D4FE6FE004EB8401204A02EBA5
:10542000C10101F10800FCF7D5FE0A230022181A79
:105430008A4112D22020A861012004EB8401184A7D
:1054400002EBC101C870062004EB840102EBC1012C
:1054500081F826000020174908704DE04CE004EB6D
:1054600084010F4A02EBC10101F11400FCF7B2FE06
:1054700004EB4402104B03EBC20252690023101AE2
:105480008B4124D22046FFF751FF012004EB840119
:10549000034A02EBC10112E0DC011AA0E0001AA0ED
:1054A0001C011AA068FB1BA000C0014000C0054001
:1054B00000000A40E001001094011AA01BE0C8702F
:1054C000062004EB840102EBC10181F8260013E001
:1054D000062004EB8401FE4A02EBC10181F826009C
:1054E000012004EB840102EBC101C87004E000203C
:1054F000F849087000E000BF00BF04EB8400F449E5
:1055000001EBC00090F8260056E72DE9F05F054654
:105510002C78002004EB8401EF4A02EB8101087132
:10552000402004EB840102EB8101088204EB84003B
:10553000114601EB8000B0F810C0D5F80970D5F81D
:105540000D106246002338463FF042FC1FFA82FBF2
:10555000288B584486B204EB8400DF4901EB8000BD
:10556000008A96FBF0F100FB116070B904EB840037
:10557000D94901EB8000008A96FBF0F004EB84012E
:10558000D54A02EB810188700EE004EB8400D24919
:1055900001EB8000008A96FBF0F0401C04EB8401D4
:1055A000CD4A02EB8101887004EB8400CA4901EB0B
:1055B00080008078012806DA012004EB8401C64AC5
:1055C00002EB8101887004EB8400C34901EB800089
:1055D0008078012807D1287E04EB8401BE4A02EBC3
:1055E0008101C8700DE004EB8400BB4901EB800031
:1055F000007CA0EB0B0004EB8401B74A02EB8101B5
:10560000C870002715E0D5F80990D5F80DA0FA006C
:10561000484651463FF066FCC2B204EB8400AE49F6
:1056200001EB80010A31A878C01B401E0A54781C87
:10563000C7B2A878B842E6DC0020C4EBC40101EB95
:105640000421A64A02EB81014861C4EBC40000EBCF
:105650000420114601EB8000808A04EB84019E4AFD
:1056600002EB8101C88004EB8400114601EB80004D
:10567000C07804EB840102EB81010881287A04EBF5
:105680008401934A02F83100002004EB840102EB0C
:10569000C1018870A87804EB840102EBC101487055
:1056A000A88804EB84018C4A02EB8101C8810020A8
:1056B00004EB840102EB81018874BDE8F09F2DE9C1
:1056C000F0410446002604EB8400814901EBC00050
:1056D0000079012801D1BDE8F08104EB84007E4906
:1056E00011F8200006287DD2DFE800F00394D8FEF0
:1056F000FDFC41F28D406043794901EBC0004AF264
:105700006441405800287DD0022004EB8401704A97
:1057100002EBC101087141F28D406043704901EB19
:10572000C0004AF26441405808B1012000E0002066
:105730000646EEB341F28D426243694B03EBC2036E
:1057400041F28D426243664F07EBC2024AF2604764
:10575000D259C2EBC20707EB022203EB8201C4EB72
:10576000C40202EB04225D4B03EB820040F21C42B8
:105770003FF001FE41F28D406043594901EBC0000A
:105780004AF264414058401E41F28D416143544AFF
:1057900002EBC1014AF26442885041F28D406043FD
:1057A0004F4901EBC000111F4058401C282100E068
:1057B0000CE0B0FBF1F201FB120141F28D406043BD
:1057C000474A02EBC0004AF26042815096B1012084
:1057D00004EB8401404A02F82100C4EBC40101EB50
:1057E000042101E0E3E00DE03C4A02EB8100FFF719
:1057F0008CFE0EE0002004EB8401354A02EBC1016F
:10580000087168E7002004EB8401314A02EBC10112
:105810000871CDE02046FFF7C1FD0546062D34D1C5
:1058200004EB84012A4A02EBC10101F11A00FCF7E2
:10583000C6FC04EB8400264901EBC000C07830B9F7
:10584000022004EB8401244A02F8210014E004EB56
:1058500084001F4901EBC000C078012806D1042054
:1058600004EB84011C4A02F8210005E0012004EB4E
:105870008401194A02F82100002004EB8401144A33
:1058800002EBC10181F8260007E0052D05D10520B6
:1058900004EB8401104A02F8210089E004EB840142
:1058A0000B4A02EBC10101F11A00FCF793FC322311
:1058B0000022181A8A4136D2C4EBC40101EB04213C
:1058C000064A02EB8100FFF76EFC30B303200CE0C8
:1058D0001C011AA0E0010010E0001AA0DC011AA0CF
:1058E000300E1AA053E04EE01EE004EB8401FB4AA8
:1058F00002F8210004EB8401F94A02EBC10101F135
:105900002000FCF75CFC04EB8401F44A02EB81010B
:10591000C8890321FFF7E3FB05E0012004EB8401C4
:10592000EE4A02F8210043E004EB8401EB4A02EB6B
:105930008101C889FFF723FC05280ED1002004EB64
:105940008401E64A02F8210004EB840102EB8101A4
:10595000C8890621FFF7C3FB14E004EB8401E04A89
:1059600002EBC10101F12000FCF734FC42F210739C
:105970000022181A8A4105D2002004EB8401D74A7C
:1059800002F8210014E02046FFF7BCFB10E004EB16
:105990008401D24A02EB8101C8890421FFF79FFBF1
:1059A000002004EB8401CD4A02F8210000E000BF92
:1059B00000BF00BF8FE610B5002404E02046FFF7CB
:1059C0007EFE601CC4B2032CF8DB10BD2DE9F84349
:1059D00080460D462C7834B1012C04D0022C02D024
:1059E0000020BDE8F88341F28D406043BD4901EBE2
:1059F000C0004AF264414058282801D30020F0E753
:105A0000B9480088401CB849088008460088B0F5AD
:105A1000FA7F01DD01200880B3480088ADF800005E
:105A2000B1480088A88001208DF8020041F28D4025
:105A30006043AC4901EBC0004AF264414058282859
:105A400001D1012000E0002006464EB341F28D4016
:105A50006043A44901EBC0004AF264414058401E33
:105A600041F28D4161439F4A02EBC1014AF2644217
:105A7000885041F28D4060439A4901EBC000111FEC
:105A80004058401C2821B0FBF1F201FB120141F209
:105A90008D406043934A02EBC0004AF2604281505D
:105AA00041F28D4060438F4901EBC0004AF26041F2
:105AB000415841F28D4060438A4A02EBC0004AF2ED
:105AC0006442805808442821B0FBF1F201FB120027
:105AD000C0EBC00101EB002141F28D406043814ADF
